:020000040800F2
:100000000000022071F2050895B90508C1DD03085A
:1000100021F3050821F3050821F30508000000007D
:10002000000000000000000000000000A1B9050869
:100030009DB905080000000099B90508D5340508E8
:1000400021F3050821F3050821F3050821F305082C
:1000500021F3050821F305081D5405082D54050852
:1000600021F3050829540508255405083DD1050844
:100070002DD105081DD105080DD10508F9D00508B9
:10008000E5D00508D1D0050821F3050800000000DF
:1000900000000000000000000000000021540508DE
:1000A000EDD10508C5D105089DD1050815D2050873
:1000B00089D1050875D1050861D1050821F3050826
:1000C00021F3050821F3050821F3050821F30508AC
:1000D00021F3050899D805088DD80508000000000F
:1000E0001954050821F30508EDDF0508000000009C
:1000F000000000000000000000000000BDD0050866
:100100000000000021F305084DD1050821F3050882
:1001100000000000000000000000000000000000DF
:10012000A9D0050895D0050881D005086DD005082F
:1001300059D0050800000000000000000000000089
:10014000000000000000000000000000EDC00508F5
:1001500045D0050831D005081DD0050821F3050854
:1001600021F3050821F3050800000000000000004D
:10017000000000000000000000000000000000007F
:100180000000000021F3050800000000000000004E
:0801900021F3050821F3050825
:0801980010EE0500010000005B
:1001A00038070120020800000300141E5807012030
:1001B000010E00000000770078070120010F000009
:1001C0000000760098070120011001000000770070
:1001D000B80701200115000000007600D8070120B3
:1001E0000116000000001E00F8070120011C00009D
:1001F00000000D00180801200118000000000C008C
:1002000038080120011D000000000E0058080120E0
:10021000011E000000001E007808012001190000E6
:1002200000000C0098080120011A000000000E00D8
:10023000B8080120011B000000000C00D8080120B4
:100240000127010000001800F8080120011F00002C
:1002500000004800180901200120000000004900AA
:10026000380901200121000000004A00580901203E
:100270000122000000004B0078090120012300004A
:1002800000004C00980901200124000000004D00EE
:10029000B80901200125000000004E00D809012006
:1002A0000126000000004F00F8090120012A00008B
:1002B00000001400180A0120012B00000000290092
:1002C000380A0120012C010000002800580A0120F2
:1002D0000228010000012C00780A0120012F0000F3
:1002E00000003C00980A0120012D000000004000A1
:0C02F000B80A01200132000000002000CC
:1080000009284FF0010307D903EB83035B00B0FBA2
:10801000F3F2092AF8D883B3F0B4DFF864C000257E
:108020000EE00A2A1E460F462346B4BF30245724CA
:108030002244092E01F1010105F101053A700FD921
:10804000ACFB0324E408B0FBF3F203FB1200002DA9
:10805000E7D1002AE5DC092B06D8303201F8012BE4
:108060000023F0BC0B707047ACFB0436B0FBF4F29D
:10807000234604FB1200F408EBE700230B70704763
:10808000CDCCCCCCF0B40D6800240CE0BCF1050FD5
:1080900018D8A0F137030A2B14D104EB840415F887
:1080A000010B03EB4404A0F13003DEB2092EA0F172
:1080B0006107A0F1410CF0D9052FE7D8A0F15703D3
:1080C0000A2BEAD00D601460F0BC704700B583B095
:1080D0000268074B8188CDF8012032221B68ADF879
:1080E00005108DF800206846984703B05DF804FB42
:1080F00000150020204B2DE9F0415D68064600F197
:108100000708002406E01B68394698473C4446456A
:10811000A4B215D016F8017BA7F17D03012B2846E8
:108120002B684FF07D01EED81B6898472B6887F0CD
:1081300020011B6828469847E8E7E3B203EB1424C4
:10814000FF2CFAD8C4F1FF04E4B2A4F17D03012BA3
:108150002B6805D9214628461B68BDE8F041184721
:1081600028461B687D2198472B6884F0200128460B
:108170001B68BDE8F0411847001500200A4AD36982
:1081800030B41C6855695D6019810025611C196057
:108190009D812070D36951691A685A604FF6F67252
:1081A00030BC19609A81704700150020F8B5CE1ECA
:1081B0000F4606440239421E04464FF6FF7312F87A
:1081C000015F5B1BB2429BB2F9D1C5194354064E05
:1081D0001B0A05F8013C14F8011B306A4BF028FA21
:1081E000A542F8D1F8B2F8BD0015002010B582B054
:1081F0000B4660F05F001A0E08211C14ADF8023027
:108200008DF80100002368468DF804408DF80520A4
:108210008DF80010ADF80630FFF7C8FF02B010BDB2
:1082200030B5062283B060F05F030D46002411468E
:1082300068468DF80130ADF802508DF80020ADF899
:108240000440FFF7B3FF03B030BD00BF284A1168F8
:1082500021F0704323F07F03002B0CBF012002208C
:108260004B07536848BF0430D90744BF0A3080B277
:108270009A0744BF143080B2D90544BF283080B279
:108280005A0744BF643080B2190744BFC83080B277
:108290009A0644BF00F5C87080B2D90644BF00F505
:1082A0007A7080B2DA040FD500F5FA5080B29904E2
:1082B00003D500F51C50103080B29A050AD5A0F500
:1082C000C740403880B2704719050AD500F5FA60FA
:1082D00080B2ECE75B0503D500F59C40203080B20E
:1082E00070475A0644BF00F57A6080B2DFE700BFEE
:1082F000200B0120022805D0A0F10100B0FA80F087
:1083000040097047054B93F82C3023B9044B18688B
:10831000C0F380007047102035F0DCB90015002054
:10832000200B0120014B93F86400704700150020DA
:10833000F0B4424D424BAB66C823013885F86C302F
:1083400005F16D0205F1A7014D2428E0DCB25BB216
:10835000002B34DB6300DCB25BB2002B36DB640045
:10836000E3B264B2002C38DB5C00E3B264B2002CF0
:108370003ADB5C00E3B264B2002C3CDB5C00E3B2AD
:1083800064B2002C3EDB5C00E3B264B2002C4FEA26
:108390004303B8BF83F0D5038A42DCB238D010F86B
:1083A000013F02F8013B634013F0800F4FEA4303A3
:1083B000CCD083F0D50463B2002BE4B2CADA6400F7
:1083C00084F0D50463B2002BE4B2C8DA630083F012
:1083D000D5035CB2002CDBB2C6DA5B0083F0D503B8
:1083E0005CB2002CDBB2C4DA5B0083F0D5035CB274
:1083F000002CDBB2C2DA5B0083F0D5035CB2002C48
:10840000DBB2C0DA5B0083F0D5035CB2DBB2BDE760
:108410000C4E85F8A740A6F144070FCF0FC60FCF2B
:108420000FC60FCF0FC697E80F00402785F8A8406A
:1084300086E80F0085F8EC70F0BC7047001500204E
:10844000C83E7BEAAC1500200020704738B50446D2
:108450000D460A460068FF215CF089FD2168294429
:10846000216038BD026810B57F21541C0460117072
:1084700002680024511C01600E211470FFF7E6FF12
:10848000012010BD30B5354C94F8ED30012B85B08E
:1084900001D005B030BD94F8EE00022826D0A0F13E
:1084A0000100B0FA80F0400948B36368002BF0D1B6
:1084B000D4F8F020002AECD094F8345094F82D1021
:1084C00092F90400002D14BF08220022002908BFE1
:1084D00042F0010203254FF46141CDE901520091C0
:1084E0001A4620212CF0FAFF6060D2E794F82C3075
:1084F000FBB91B4B1868C0F380000028D5D1626817
:10850000002AC6D0D4F8F830934217D0D4F80431FA
:108510009A421CD0D4F810319A420ED0D4F81C31B3
:108520009A4216D0D4F828319A4214D000236360BE
:10853000AFE7102035F0CEF8B6E7022000EB4000A0
:10854000002104EB8003D162C3E93E11EEE7012074
:10855000F4E70320F2E70420F0E700BF0015002055
:10856000200B012070B51D4E1D4D96F83801632279
:10857000002152F0B9FCB6F85C3104461948333B8F
:1085800080FB0320DB17C3EB20100922002152F0EF
:10859000ABFCAA68C0F10903642000FB0344A4B249
:1085A000910744BF04F57A74A4B22B68D20744BF84
:1085B00004F5FA64A4B25B0701D4204670BD15200F
:1085C00035F088F80028F8D06B6813F4016F04BF09
:1085D00004F57A64A4B2204670BD00BF00150020E7
:1085E000200B01201F85EB5110B5044CA36843F00C
:1085F0008003A3602EF086FE608210BD200B012058
:1086000038B5074CB4F8C8512EF07CFE854204DD25
:10861000044BB4F8C8215A8238BDBDE83840E3E7BE
:1086200000150020200B012008B5FFF7E9FF00200E
:1086300008BD00BF70B5214D95F8DE31EA181C4623
:1086400092F8E0218AB11E4E09225C1CA6FB04139D
:108650005B0803EBC303E31AE918DCB291F8E011FD
:1086600009B1013AF1D185F8DE4102681549561C7D
:1086700006600C2616700268561C066000261670EE
:108680000268561C066003EB430603EB8603147076
:1086900019440D2251F002FC95F8DE11084B4A1CDA
:1086A000A3FB02035B08294403EBC3030120D31A95
:1086B00081F8E00185F8DE3170BD00BF00150020B3
:1086C000398EE338EC1600202DE9F047724C82B069
:1086D000E269D2E900239B1A002B00AF40F39B8094
:1086E000002384F874326D4B236103F18002A3F1FF
:1086F0001406C4E99933C4E90526C4E9FE2203F54A
:10870000C075E5610025421800F10109C4E9029233
:1087100003785909012940F0858003F00F0813F010
:10872000100310D1002D00F0968094F80914013147
:1087300001F00F0141457ED01846083784F87432A5
:10874000BD46BDE8F087831CA360C31C4278D4F803
:1087500010A0A3608078C6F800A00AEB0203736043
:10876000424084F80824D4E90292002584F8741267
:108770003081B581A2EB0902D5B2A3EB0A0A5FFAF8
:108780008AFAEB1D03F4FC73AA45ADEB030D67D227
:108790005246494668465CF0FFF909EB0A03524627
:1087A00030466946A36051F079FB2369306894F83C
:1087B00008248342C6E9003009D00133336013F83E
:1087C000011C984282EA0102F7D184F80824A368C8
:1087D0001B78934232D12369E169C6E900306369AD
:1087E0004B600023A0690B818B813A1D84F87432A1
:1087F0007B6037F09FFB013046D07B680BB10020D7
:108800009847E3696269196801200837C3E90021C4
:10881000BD46BDE8F08794F87452002D3FF463AF75
:10882000A66970E700210846FFF7A8FC0120083779
:10883000BD46BDE8F087D6E900A39BE70023B6F963
:10884000081084F874320120FFF798FC01200837E3
:10885000BD46BDE8F08728460837BD46BDE8F0872D
:108860002A46494668465CF097F909EB050330460D
:108870002A466946A36051F011FB0020083784F8AE
:108880000984BD46BDE8F087E26913680221581CDF
:1088900010601970B1E700BF0015002078170020A4
:1088A00038B5002035F0F2F948B10D4CB4F8C85194
:1088B0002EF028FD85420BDD0124204638BD0446FC
:1088C0002EF020FDFFF790FE064B5C77204638BD6A
:1088D000044B94F8D8215A770224204638BD00BFB3
:1088E00000150020200B01202DE9F04F304D314EB6
:1088F000B5F90A14B5F810C4B5F80C7486FB014636
:10890000CC17C4EBA604A4B2A44583B016469A467D
:108910004BD1B5F81234BB4205F5836B33D00368F5
:108920000190591C342201601A7003680022591CFE
:1089300001601A70214651F0E1FA0198394651F070
:10894000DDFA019847F6FF7151F0D8FA019847F621
:10895000FF7151F0D3FA019847F6FF7151F0CEFA4A
:10896000019847F6FF7151F0C9FA01980221FFF70B
:108970006DFD0120CBE9006AA5F81044A5F812743A
:1089800003B0BDE8F08FD5F81834D5F81C14B2EB5D
:1089900003086AEB0109084A00234B4508BF42451A
:1089A000BDD3002003B0BDE8F08F05F5836BB6E7BB
:1089B000001500206766666680841E00604A536A60
:1089C0002DE9F041064613F0800000F09A8090688F
:1089D00010F0020000F095805A4F97F838110529E1
:1089E00040F29380632900F28E800024DFF860C19A
:1089F00089B22546ACFB0132D20802EB8203A1EB1F
:108A00004303E0B28E469BB280008340BEF1090F63
:108A100091B245EA030504F10104EBD8EDB2D7F8B1
:108A20004431494A82FB0312D917C1EB623189B242
:108A3000002900F082804FF0000CDFF814E164465A
:108A4000AEFB0132D20802EB8203A1EB43035FFAD3
:108A50008CF088469BB280008340B8F1090F91B238
:108A600044EA03040CF1010CEAD8E4B2B7F854313B
:108A700036494FF4F36213FB02F381FB0312D9175B
:108A8000C1EBA21189B242F20F73994240D8C9B129
:108A90000027DFF8BCE0BC46AEFB0132D20802EB97
:108AA0008203A1EB4303F8B288469BB28000834067
:108AB000B8F1090F91B24CEA030C07F10107EBD8AA
:108AC0001FFA8CF133681722581C30601A70336813
:108AD0000022581C30601A70304651F00FFA4FF0E7
:108AE000FF31304651F0F2F933685A1C32601D7084
:108AF00033685A1C326030461C700621FFF7A6FC12
:108B00000120BDE8F081992589E70020BDE8F081CA
:108B10000020DFF83CC00146ACFB0372D20802EB38
:108B20008207A3EB47039BB283400430102841EA3D
:108B3000030193B2F0D189B2C4E70C4696E700BFB7
:108B4000200B01200015002089B5F814D34D6210C8
:108B5000CDCCCCCC2DE9F04FC14A536A804613F0FE
:108B6000800083B000F06F81906810F0020000F088
:108B70006A81DFF80CB39BF83831052B40F268812D
:108B8000DBF83C31B74D0093002BB8BF5B42A5FB2F
:108B90000342B548B549920D00FB0233C3EB031302
:108BA0009B0085FB034502EB8202DC1702EB82028D
:108BB000C4EBA55400FB043304EB8204A4B281FB94
:108BC0000321DB17C3EBA111BCB10025A84F2E4632
:108BD000A7FB0432D20802EB8203A4EB4303E8B202
:108BE000A4469BB280008340BCF1090F94B246EAD0
:108BF000030605F10105EBD8340489B2B9B10025AB
:108C00009B4F2E46A7FB0132D20802EB8203A1EB59
:108C10004303E8B28C469BB280008340BCF1090F4D
:108C200091B246EA030605F10105EBD83443DBF8BF
:108C300040E18C4D8C4E8D498EEAEE70A0EBEE70CB
:108C4000A5FB0032920D06FB0200C0EB0010830072
:108C500085FB035002EB8202DD1702EB8202C5EBBB
:108C6000A05506FB053305EB8205ADB281FB032160
:108C7000DB17C3EBA111C5B10020DFF8F4C1064634
:108C8000ACFB0532D20802EB8203A5EB4303C7B26B
:108C9000A9469BB2BF00BB40B9F1090F95B246EAA5
:108CA000030600F10100EBD8350489B2C1B1002000
:108CB000DFF8BCC10646ACFB0132D20802EB8203EE
:108CC000A1EB4303C7B289469BB2BF00BB40B9F1D9
:108CD000090F91B246EA030600F10100EBD83543D3
:108CE000DBF84431624A0193002B1846B8BF584262
:108CF000A2FB00305F4E6049030AA6FB0363DB0959
:108D000001FB03F1C1EBD00189B2B9B10026914654
:108D10003746A9FB0132D20802EB8203A1EB4303E1
:108D2000F0B28C469BB280008340BCF1090F91B237
:108D300047EA030706F10106EBD8B9B2BBF8567152
:108D4000DFB10026DFF828A1B446AAFB0732D2081B
:108D500002EB8203A7EB43035FFA86F938469BB226
:108D60004FEA890903FA09F3092897B24CEA030C80
:108D700006F10106E9D81FFA8CF7BBF85C313C4AD2
:108D8000A2FB0306F608632E28BF6326092B63D9CE
:108D9000002093468146ABFB0632D20802EB8203E9
:108DA000A6EB43035FFA80FAB4469BB24FEA8A0A05
:108DB00003FA0AF3BCF1090F96B249EA030900F17C
:108DC0000100E8D85FFA89F9009B019A002BCCBF1B
:108DD000392338231616BEF1000F26F07F0635DD45
:108DE000264A3343964543F00206C8BF43F00606C1
:108DF000D8F800301622581CC8F800001A70D8F8AD
:108E000000300022581CC8F800001A70404651F08B
:108E100075F82146404651F059F82946404651F030
:108E200055F84046394651F069F8D8F800305A1CD8
:108E3000C8F8002083F80090D8F800305A1CC8F811
:108E4000002001201E7003B0BDE8F08F1E43CFE765
:108E5000002003B0BDE8F08F4FF00009B4E700BF79
:108E6000200B01206BCA5F6B806967FFD34D6210D6
:108E7000CDCCCCCCC55A7C0AA0860100FFC99A3B58
:108E80000015002003687E22591C10B501601A707D
:108E900003680022591C01601A704FF6FF710446E6
:108EA00051F006F80D4B93F8323083B126F084FA76
:108EB0000146204650F0FCFF204647F6FF7150F077
:108EC000F7FF20460821FFF7C1FA012010BD26F068
:108ED00089FA0146204650F0EBFFEDE7001500202F
:108EE00070B504462DED028B00200D4634F0CEFE09
:108EF000002850D02A4ED6E90501201A65EB010161
:108F000055F090FF9FED270A07EE900A27EE800AA2
:108F100040F2DC53BCEEC00A10EE102A9A4234D85C
:108F2000214CB8EEC08A2EF0EDF9B4F8C8319FEDAF
:108F30001F1ADFED1F0A07EE900A02EE103AF8EE54
:108F4000E71AB8EE422AB0EE480A51F09DFF94F8B5
:108F5000D831DFED171A9FED151AFDEEC07A02EE3B
:108F6000103A17EE903AB0EE480AB8EE422AF0EE08
:108F7000610A738251F088FFBDEC028BFCEEC07A6F
:108F8000002017EE903A737770BDFFF739FBBDEC08
:108F9000028B012070BDBDEC028B042070BD00BFB0
:108FA000200B01206F12833A001500200080BB4483
:108FB00000000000F0B5334D334FD5E905322DEDFB
:108FC000028BC01A83B061EB020155F02BFF9FEDBD
:108FD0002F8AB7F8D06107EE900A27EE888A34F01E
:108FE00083FE002848D1BCEEC88A18EE103A9E4293
:108FF00004D2012003B0BDEC028BF0BDB5F91230F4
:10900000DFED230A02EE103AB7F8CA3107EE906A94
:10901000B8EEC88A01EE903AB8EE671AB8EEC22AE6
:10902000F8EE611AB0EE480A04468DED011A51F0CF
:109030002BFF97F8D831DFED160A9DED011A01EEEE
:10904000903AB5F90E30FDEEC07A02EE103A17EE06
:10905000903AF8EE611AB8EEC22AB0EE480A6B8276
:1090600051F012FFFCEEC07A204617EE903A6B7773
:1090700003B0BDEC028BF0BD032003B0BDEC028B4E
:10908000F0BD00BF200B0120001500206F12833AB5
:10909000000000002DE9F041274E284DD6E90532A9
:1090A000C01A61EB020155F0BDFEDFED257AB5F87F
:1090B000CC31B5F8D22107EE100A67EE277AFCEE24
:1090C000E77A17EE904A234493422ED8B5F8CE7132
:1090D000B5F8CA81A74204D2A6F812800120BDE8E3
:1090E000F0812EF00FF9B5F8C831DFED160A07EE62
:1090F000908A9842B8BF1846B8EE672A07EE907A71
:1091000083B201EE903AB8EE671A07EE904AF8EE95
:10911000611AB8EEE70A51F0B7FEBDEEC00A0020B2
:1091200010EE103A7382BDE8F08134F0DDFD0028C6
:10913000CCD00320BDE8F081200B012000150020D9
:109140006F12833A0000000070B504460D46FFF729
:1091500057FA124B124ED3E90501201A65EB0101B3
:1091600055F060FEDFED0F7AB6F8D23107EE100A47
:1091700067EE277AFCEEE77A17EE904A9C4206D813
:10918000B6F8CC01A0422CBF0020012070BD34F005
:10919000ABFD0028F4D0032070BD00BF200B0120E0
:1091A000001500206F12833AF8B504462DED048BAC
:1091B00000200F4634F06AFD002800F08180424D07
:1091C0009FED427AD5ED0C7A414E9FED420A96F81A
:1091D000D931F0EEE76AF4EEC76AF1EE10FA46DD37
:1091E00007EE103AB8EEC77AD5ED0E6AD5ED0D8AC6
:1091F00027EE000A86EEA79A51F066FFB6F8C43152
:1092000007EE903AF8EEE77AB0EE408AF4EEE78A9D
:10921000F1EE10FA44DCB6F8C23107EE903AF8EEFF
:10922000E77AF4EEC97AF1EE10FA41D5F5EEC08A8C
:10923000F1EE10FA3CDDFFF7E3F9D5E90501201A5C
:1092400067EB010155F0EEFDDFED237AB6F8C6516C
:1092500007EE100A67EE277ABDEC048BFCEEE77A86
:1092600017EE903A9D422CBF00200120F8BD07EE7A
:10927000903AF8EEE77AD5ED0D8A27EE800A51F0A4
:1092800023FFB6F8C43107EE903AF8EEE77AB0EE75
:10929000408AF4EEE78AF1EE10FA09DD9FED0F9AAD
:1092A0002DF0A8FDB4EEC80AF1EE10FAC3DAB2E769
:1092B000FFF7A6F9BDEC048B0020C5E90547F8BD12
:1092C000BDEC048B0420F8BD200B0120F366DF3FCA
:1092D0000015002035FA8E3C6F12833A0000000022
:1092E00000F01F0240090123032803FA02F304D00F
:1092F000042807D002280AD07047074A116C0B4394
:1093000013647047044A116B0B4313637047024A9E
:10931000516C0B4353647047003802400B68144A89
:1093200030B40568CC682A402343D1E9054513438E
:109330002343D1E907242B4313434A6A4D6B23434C
:1093400013438C6BCA6A2B43234343F400330360FB
:1093500044690B6B0D6924F0070413432343D1E9DF
:10936000014243614560846030BCC260704700BF09
:109370003F801CF030B403681A6853797BB159B24E
:10938000002920DB174C0120651803F01F03490951
:1093900000FA03F3302085F8000344F82130937974
:1093A0007BB15AB2002A15DB0E480121841803F064
:1093B0001F03520901FA03F3302184F8001340F827
:1093C000223030BC7047084903F00F0319443023A2
:1093D0000B76E4E7044A03F00F031A4430231376B4
:1093E00030BC704700E100E0FCEC00E0094A0023DB
:1093F0000133092B02F1140209D012F8141C814226
:10940000F6D1054803EB830300EB8300704700208F
:10941000704700BFD8500608C05006082DE9F04735
:10942000041E0D4612DB092C26DC824A0B468248BC
:10943000A0FB0410C00800EB8000A4EB400000215A
:10944000125C1A7059702846BDE8F08764422D23DB
:10945000092C01F8013B24D8764A774BA3FB04037F
:10946000DB0803EB8303A4EB43030020D35C4870C9
:109470000B702846BDE8F0876F4B632CA3FB0426D6
:109480004FEAD60621DC6B4A0B466B49A1FB06016D
:10949000C90801EB8101A6EB4101515C03F8011BF6
:1094A000C5E7654A632CA2FB04364FEAD60637D8D7
:1094B000604A614BA3FB0603DB0803EB8303A6EBC7
:1094C0004303D35C01F8013BC7E7A3FB0627B4F5D0
:1094D0007A7F4FEAD7070DD2564A0B465649A1FB71
:1094E0000701C90801EB8101A7EB4101515C03F8B9
:1094F000011BCAE7A3FB072842F20F7294424FEA0E
:10950000D80836D84B4A0B464B49A1FB0801C9087D
:1095100001EB8101A8EB4101515C03F8011BDDE780
:10952000A2FB0637B4F57A7F4FEAD7070CD2414A3F
:10953000414BA3FB0703DB0803EB8303A7EB4303C8
:10954000D35C01F8013BB4E7A2FB073842F20F738A
:109550009C424FEAD80821D8364A374BA3FB080370
:10956000DB0803EB8303A8EB4303D35C01F8013B67
:10957000DEE7324AA3FB080994424FEAD90921D811
:109580002C4A0B462C49A1FB0901C90801EB8101BA
:10959000A9EB4101515C03F8011BB5E7274BA2FB86
:1095A00008099C424FEAD90921D8224A224BA3FB41
:1095B0000903DB0803EB8303A9EB4303D35C01F846
:1095C000013BCAE71E4AA3FB090394424FEAD30AB0
:1095D00021D80B461849174AA1FB0A01C90801EB1B
:1095E0008101AAEB4101515C03F8011BCAE7144B4E
:1095F000A2FB09029C424FEAD20A13D80E4B0D4A35
:10960000A3FB0A03DB0803EB8303AAEB4303D35C4E
:1096100001F8013BCAE70A22BAFBF2F050F09AF9CE
:109620000346D7E70A22BAFBF2F050F093F901465D
:10963000E4E700BF54C50608CDCCCCCC9F86010022
:109640003F420F002DE9F04788B0541C0394147872
:10965000002C00F040810025074688461E46A9469A
:109660000BE0791C02D021463846C047039A0135E9
:10967000531C03931478002C58D0252CF1D1931C43
:10968000CDE9033950782D2800F0C8804FF0000A4A
:10969000302800F0AB80A0F13003DBB2092B4FF093
:1096A000000440F2AF806C284ED0782838D8572874
:1096B00040D9A0F15803202B32D8DFE813F0F40092
:1096C0003100310031003100310031003100310012
:1096D00031003100DA0000013100C10031003100F9
:1096E00031003100310031003100E3003100310040
:1096F00031003100BB003100210031003100F400A5
:1097000056F8040B05A9FEF77BFC05ABCDE9004339
:10971000049B42464FF0FF31384650F0A9FC054407
:10972000039A531C03931478002CA6D1284608B042
:10973000BDE8F0870028F9D02528F1D17B1C95D011
:1097400025213846C04791E7039B5A1C039219789C
:1097500078298DD8572967D9A1F15803202B87D8AC
:1097600001A050F823F000BF8F9800087196000800
:1097700071960008719600087196000871960008AD
:10978000719600087196000871960008719600089D
:109790007196000873980008CB980008719600082D
:1097A00041980008719600087196000871960008AB
:1097B000719600087196000871960008719600086D
:1097C0008798000871960008719600087196000845
:1097D00071960008359800087196000801970008F6
:1097E00071960008719600088F980008039B5A1C18
:1097F00003921878A0F13003DBB2092B4FF001047B
:109800003FF651AF04AA03A9FEF73CFCBAF1000FE2
:109810003FF449AF049B5B42049344E7D31C03939A
:1098200090784FF0010A33E700293FF47FAF2529F4
:1098300084D01DE756F8042B049BCDE9009268E71D
:10984000073626F00706F6E8020155F0B3F900EEF8
:10985000100A05A850F014F805ABCDE900434246C4
:10986000049B4FF0FF31384650F002FC039A054448
:10987000FEE67A1C3FF4FAAE56F8041B3846C9B22D
:10988000C047F3E6039A56F8043B1D60F0E6A1F1E9
:109890005802B2FA82F256F8040B520905AB1021B5
:1098A00050F0B4F831E7A0F15802B2FA82F256F85B
:1098B000040B520905AB102150F0A8F825E756F823
:1098C000040B05A950F05EF81FE756F8040B05A934
:1098D00050F058F819E7254628E700BF2DE9F04772
:1098E000D0F804C0BCF81030804665480E4690B0F1
:1098F00017464FEAD31E190900256A010135835A1C
:109900008EEAD31481EA131304F0030403F007036F
:10991000234308D0102DF0D10023C8F80C3018468E
:1099200010B0BDE8F08700EB0209DCF8001099F8F0
:109930001C20C8F80C90002AF1D1B1F84430514CE9
:109940006FEA43436FEA53439BB2A1F844300B885C
:109950009BB243F080030B809CF805300A8C2344B3
:10996000012593F8B43005FA03F39BB292B222EAD0
:1099700003020A840A8C92B213430B840B889BB2B5
:109980002B430B80484653F03DFBD8F80CA00A232C
:10999000A9F81C30504653F035FB9AF914303A4A76
:1099A000CAF81880002BCAF80C205FDB374A03F096
:1099B0001F0CD1185B09302005FA0CF581F8000363
:1099C00042F82350D8F80C30986853F085FAD8F84C
:1099D0000C309868036823F00103036053F07CFAAD
:1099E0000023CDE90C33CDE90E33D8F804200693DB
:1099F0000A935379032B40D8DFE803F035322F0266
:109A000013684033128A029302F00F0304EB8304BD
:109A1000D8F80C20D4F8B830906801934FF48061E6
:109A200040224FF4003307914FF480454FF48054A7
:109A300001A904920B93CDE9084505970396FFF71A
:109A40006DFCD8F80C309A68136843F0100313606B
:109A50000123184610B0BDE8F08713683C33D1E706
:109A600013683833CEE713683433CBE7084A03F082
:109A70000F031A4430231376A4E70023C2E700BF84
:109A800000000020C0500608DD8C050800E100E061
:109A9000FCEC00E082B000230193019A0C490D4BCD
:109AA000D1F82C1442F020020192019A60F38A123C
:109AB0000192019A0A610A69019203E00A6901921E
:109AC000013B02D0019A9206F8D4002002B0704700
:109AD00000150020400D030010B58021044651F010
:109AE00061FF2046002151F05DFF2046BDE8104097
:109AF00051F08CBF037870B433B30246C0F1010556
:109B0000531912F8014FDBB2002CF9D101335B007D
:109B1000DAB20F4C0B80032384F8142A84F8153A28
:109B2000017879B1022300265A1CE51854FA82F212
:109B300085F8141A82F8146A10F8011F0233DBB298
:109B40000029F1D170BC704702221346E1E700BF43
:109B5000001500202DE9F04F2DED108B034693B03A
:109B600004331193DFEDC1AA109002230F928B46AC
:109B70000E938946109C4FEADB0504EB451202EB7D
:109B80000511A5EB85034FEAC5084FEA051E05EB55
:109B9000850A009101EBC30308F104000EF10401F2
:109BA0002E46204405EB450521444FEACA040D9694
:109BB00002942C01C6EBC60C0394EC000D9D04949A
:109BC0004FEACC0405946C010194119D009C03EBB9
:109BD00046174FEACB0A02EBC6064FF0000C55EDD4
:109BE000011A11ED012AD6ED005AD7ED004A92ED87
:109BF000003AD4ED003A10ED015A93ED004A72EEAE
:109C0000238A34EE248A71EE836A35EE257A36EEA5
:109C1000A86A77EE087A35EE655A76EE275A36EE60
:109C2000676A45ED015A82ED006A90ED00AAD6ED13
:109C3000012A93ED016AD7ED019A94ED010AD1ED65
:109C4000005AD5ED007A92ED019A34EE644A76EE30
:109C5000690A7AEE624A35EEC01A31EEC33A72EE04
:109C6000633A34EEA02A77EEC91A74EEE04A75EE34
:109C7000805A75EE440AB0EE410A35EE045AA2EE5F
:109C80002A0ADC44E145A2EE6A1AB0EE434AB0EE7D
:109C9000432AA0EEAA2AA0EEEA4AB0EE613AF0EE1C
:109CA000610AE4EEAA0AA4EEEA3AF0EE634AE5EEAF
:109CB0006A3AE5EE2A4A7AEE222A36EE296A77EEE9
:109CC000897A72EE861A37EE487A32EEC66A76EEF6
:109CD000E86AB0EE635A77EEA53A77EEE57A73EE6E
:109CE000A18A36EE868A73EEE13A76EEC66A77EEA0
:109CF000C71A72EE002A77EE277A74EE015A30EE18
:109D0000E46A33EE457A32EE402A34EE414A74EE8C
:109D1000A04A35EE035AC5ED008AC2ED013A55441A
:109D200001ED018A5244C4ED006AC1ED001AC4ED90
:109D3000017A514440ED012A544487ED002AC6EDD2
:109D4000005A83ED004A80ED006AC7ED014A504495
:109D500086ED017A574483ED015A564453443FF649
:109D60003EAF0D9B072B40F2A3810198109D059BF0
:109D7000049A0399029C0830281808330A90284650
:109D8000C318083282180593034608F108080EF13B
:109D90000C0E0C33083408310692024645447244D6
:109DA0000419411804934B460995D146089407912C
:109DB00003924FF001084FF0000E9A460E9B9E440E
:109DC0000F9B03EBCE0303EBCE0202EBCE0000EBC6
:109DD000CE0404EBCE0505EBCE060C9306EBCE07C6
:109DE000AEEB8E030B9207EB031202EBCE0C0CEBE7
:109DF000CE03029203EBCE0201931346D3ED01DAB8
:109E0000019BD0ED007A93ED01DA029BCDED027A51
:109E100093ED01CA0B9BDCED01CAD3ED007A0C9BDC
:109E2000CDED017A02EBCE0202EBCE01009201EB06
:109E3000CE02D3ED007A92ED01FA009AD1ED01EA5B
:109E400092ED01EAD7ED00BA96ED00BA95ED00AAC1
:109E5000D4ED009ACDED007ADDE90376DDE9055415
:109E6000DDE90701DDE90923C44601E0F304353FDC
:109E700091ED006A56ED01FAD0ED002AD4ED005ABA
:109E8000D5ED006A93ED007A57ED017A92ED002A44
:109E900096ED008A7FEE870A32EE061A37EEA24A66
:109EA00075EEA64A70EE841A31EE245A32EE462A36
:109EB00031EE856A75EEE65A06ED016AD4ED018A47
:109EC00092ED019A91ED013A95ED016A97ED000A44
:109ED000D0ED016AD3ED013A3FEEC77A77EEE27A30
:109EE00078EEC6FA79EE432A39EE033A30EE669AF6
:109EF00038EE866A70EE266A78EE638A32EEEF0AF2
:109F000072EEAF2A78EE233A30EEC44A32EE258A5A
:109F1000F0EE490A72EE655AE2EEAA0ADC44E24526
:109F2000A2EEEA9AB0EE682AF0EE472AE5EEAA2AF7
:109F3000A5EEEA7AA0EE2A2A73EE065AE0EE6A8AC5
:109F4000F0EE67FA33EEA60AE8EE6A7A71EE644A3A
:109F500031EEC55A33EE463A70EE651A73EEE63AC4
:109F600034EE036A72EEA06A34EE434A72EEE00AFF
:109F700033EEE43AE8EE2AFA74EEA33A65EE6D2A7F
:109F800077EE094A37EE499A38EEE77A77EEA88AF3
:109F90006DEEA17A9DED018AE9EE857AE9EEA12ABE
:109FA00026EE6C5A6CEE831A32EE6F1AA8EE035A44
:109FB000E8EE061A2EEEA33A24EE6E6A9DED008AB4
:109FC0003FEE822AABEE043AABEE236A2CEE014A56
:109FD00066EECC3AA8EE264AE8EE013A6FEE026A47
:109FE00020EECF1AEBEEA06AABEE821A64EECE0A38
:109FF0002EEE072A9DED028AEAEE070AAAEE242A2F
:10A000002DEE287A69EE4D4AA8EE097AE8EE284A44
:10A0100070EE255AC6ED005AC3ED007AC3ED012A51
:10A020004E4447ED011A87ED005A4B4480ED003A4B
:10A0300080ED016A4F4482ED004AC2ED013A484486
:10A04000C5ED006A85ED011A4A4481ED002A4D44B0
:10A05000C1ED010A84ED007AC4ED014A49444C4443
:10A060003FF606AF0A9B08330A93099B083309930E
:10A07000089B08330893079B08330793069B083314
:10A080000693059B08330593049B08330493039BB5
:10A09000083303930D9B08F1010843457FF48EAE0E
:10A0A0000E9BDDF834B0DB009BB2D1460E9361E528
:10A0B00013B0BDEC108BBDE8F08F00BF804BB3FB3D
:10A0C000F2F399420DD300234FF07E524360836038
:10A0D000C360036102600023836143610362C36163
:10A0E000704707EE902A9FED777AF8EE676A07EEE1
:10A0F000901A66EE876AF8EE677A66EEA76AFDEE5A
:10A10000E67A17EE903A2033402B00F2CA80DFED5A
:10A110006E7AF4EEE76AF1EE10FAF0EE667A0CDD94
:10A12000DFED6A5A9FED6A6AB0EE677AB4EEC67ADE
:10A13000F1EE10FA77EEE57AF6DC9FED667AF4EE52
:10A14000C77AF1EE10FA0CD5DFED605A9FED626A26
:10A15000B0EE677AB4EEC67AF1EE10FA77EEA57A31
:10A16000F6D49FED5E7AF4EEC77AF1EE10FA00F3C2
:10A1700090809FED5B7AF4EEC77AF1EE10FA44BF5F
:10A180009FED547A77EE677A27EEA76ADFED554A9E
:10A190009FED557A9FED555ADFED555AA6EE247A7C
:10A1A00067EE864AA6EE075AB6EE007AE6EE055A44
:10A1B000E4EEA57A27EE877A9FED486A76EE867AF6
:10A1C000FDEEE75A15EE903A2033402B66D8F4EEB8
:10A1D000C66AF1EE10FA0CDDDFED3C5A9FED3C6AE9
:10A1E000F0EE676AF4EEC66AF1EE10FA77EEE57A01
:10A1F000F6DCDFED386AF4EEE67AF1EE10FA0CD513
:10A20000DFED325A9FED346AF0EE676AF4EEC66A0B
:10A21000F1EE10FA77EEA57AF6D4DFED306AF4EEBF
:10A22000E67AF1EE10FA3FDDDFED276A76EEE77AA7
:10A2300067EEA76ADFED2B4A9FED2B5ADFED2B5A15
:10A240009FED2B6AA6EEA45A67EEA64AE6EE855A63
:10A25000B8EE005AA6EEA56AE4EE867A67EE857A35
:10A26000C7EE006AB7EE006A76EE865A76EE666A48
:10A2700086EE257A67EE277A66EE876AC0ED017A68
:10A28000C0ED037A80ED007A80ED027AC0ED046AB9
:10A2900021E79FED0D7A77EE677A75E7DFED157AA6
:10A2A000DEE79FED147A87E7DFED0D6AF4EEE67ADC
:10A2B000F1EE10FA44BFDFED076A76EEE77AB7E712
:10A2C00020A1070027D4D236DB0F4940DB0FC9405D
:10A2D000E4CB1641DB0F49C0E4CB16C1DB0FC93F0D
:10A2E000DB0FC9BF9A7C2E36FAAF4FB93587083CD1
:10A2F000A4AA2ABE000000000023024A42600360B4
:10A300008360704783F9223E034A044B4260002178
:10A3100001608360704700BF5B128B3A6F12033B92
:10A32000034B6428B8BF6420C3F8B405704700BF6E
:10A3300000000020034B64281B6CB8BF6420D86069
:10A34000704700BF200B01202DE9F04790B0DDE9F8
:10A3500018480E460746914601A83C2200219A461D
:10A360001A9D5AF004FE2E4B8DF80460CDF834800F
:10A370000293002E50D0B31E012B4FD9042E14BFD0
:10A3800000230323DFF89C808DF80530D8F8543B78
:10A3900003941C440123CDE9055704948DF8313012
:10A3A000B9F1000F06D05246494607A85AF0F4FB0F
:10A3B0008DF830A098F85AEB0023BEF1010F0E93F0
:10A3C0001CD801AC0FCC98F859CBCCEB0C1508EB92
:10A3D000850505F65C350FC50FCC0FC50FCC0FC535
:10A3E00094E80700BCFA8CFC0EF1010E4FEA5C1CED
:10A3F00085E8070088F85AEB88F859CB3B6843B1E9
:10A4000053464A463146384610B0BDE8F0472AF078
:10A410001FBA10B0BDE8F0870523B3E70223B1E708
:10A42000142000200015002000230360704700BFA7
:10A43000B4EEE00AF1EE10FA09D4F7EE007AB4EEC9
:10A44000E70AF1EE10FA88BFB0EE670A7047B0EE87
:10A45000600A704770B590F91030134D03EB830319
:10A460000446806805EB830513468207D5F85059EA
:10A4700082B00E460AD532462846002153F030FEFF
:10A48000A3689B0709D5012002B070BD60690193E4
:10A4900049F0B2F900BF019BEDE700BF606949F0E8
:10A4A00005FE012002B070BD00000020074B0849E6
:10A4B000D3F8042CC3F8F41B931E4FF478712232A6
:10A4C00023F8021F9342FBD1704700BF0015002004
:10A4D000ED9F020870B5244E244BC6F8F43B1124BE
:10A4E0004FF4787506F541634FF4787086F8D84BD1
:10A4F0004FF47874C3E90045C3E90245C3E9044554
:10A50000C3E90645C3E90845C3E90A45C3E90C4563
:10A51000C3E90E451649C6F8500C84B006F6D83289
:10A5200041F60B2400254020C2E90245C6F8F81B7D
:10A530002BF086F8B0B196F85B3C0E4A90F9040017
:10A540000092012B0CBF082200220323CDE9013227
:10A550004021094A00232AF0C1FFC6F87C0C0038CC
:10A5600018BF012004B070BD0015002051AB0208D7
:10A5700049AC0208A06806003DBE0208642828BF56
:10A5800064201C4B00EB800070B54500A3FB052345
:10A590005E095B0918BF002422D001349F204AF0D5
:10A5A00047FFE3B29E42F8D80A2E00D170BD124890
:10A5B000A0FB05300009C6EB8613C6EB83036638A3
:10A5C0001844C0B24AF034FF092E06F10104EDD060
:10A5D00001349A20E4B24AF02BFF0A2CF8D170BD66
:10A5E0000548A0FB053000096638C0B24AF020FFDC
:10A5F0000124EDE71F85EB51CDCCCCCCF0B41A4F44
:10A6000097F8803C042B2CD80C2202FB037202F634
:10A61000884252F8041C0133CC07DBB20ED501424C
:10A620000CD092F90060114C002194F90050B54211
:10A6300004F10C040BD001310529F6D1052B02F1F0
:10A640000C02E6D187F8803C0020F0BC704701EB9B
:10A65000410107EB810187F8803CD1F8F800F0BC9C
:10A6600070470020F1E700BF00150020F41500201E
:10A670000144884218D030B4441E4D1E002041F2DF
:10A68000210114F8012F082380EA022010F4004F62
:10A6900081EA40020ABF400090B280B2013BF5D18E
:10A6A000AC42EED130BC704700207047D0ED017A4B
:10A6B000F5EE407AF1EE10FA05D19FED0B7AF0EE4F
:10A6C000477A80ED017A30EEA77AD0ED007AC0EDBE
:10A6D000020AC0EE876A30EE670AE6EE807AB0EED4
:10A6E000670AC0ED007A704783F9223EBCEEC00ACB
:10A6F0007F4AB2FBF1F210EE103A9BB2934208D3BC
:10A7000000234FF07E5243608360C36003610260A8
:10A71000704707EE901A9FED777AF8EE676A07EEBA
:10A72000903A66EE876AF8EE677A66EEA76AFDEE03
:10A73000E67A17EE903A2033402B00F2CA80DFED24
:10A740006E7AF4EEE76AF1EE10FAF0EE667A0CDD5E
:10A75000DFED6A5A9FED6A6AB0EE677AB4EEC67AA8
:10A76000F1EE10FA77EEE57AF6DC9FED667AF4EE1C
:10A77000C77AF1EE10FA0CD5DFED605A9FED626AF0
:10A78000B0EE677AB4EEC67AF1EE10FA77EEA57AFB
:10A79000F6D49FED5E7AF4EEC77AF1EE10FA00F38C
:10A7A00090809FED5B7AF4EEC77AF1EE10FA44BF29
:10A7B0009FED547A77EE677A27EEA76ADFED554A68
:10A7C0009FED557A9FED555ADFED555AA6EE247A46
:10A7D00067EE864AA6EE075AB6EE007AE6EE055A0E
:10A7E000E4EEA57A27EE877A9FED486A76EE867AC0
:10A7F000FDEEE75A15EE903A2033402B66D8F4EE82
:10A80000C66AF1EE10FA0CDDDFED3C5A9FED3C6AB2
:10A81000F0EE676AF4EEC66AF1EE10FA77EEE57ACA
:10A82000F6DCDFED386AF4EEE67AF1EE10FA0CD5DC
:10A83000DFED325A9FED346AF0EE676AF4EEC66AD5
:10A84000F1EE10FA77EEA57AF6D4DFED306AF4EE89
:10A85000E67AF1EE10FA3FDDDFED276A76EEE77A71
:10A8600067EEA76ADFED2B4A9FED2B5ADFED2B5ADF
:10A870009FED2B6AA6EEA45A67EEA64AE6EE855A2D
:10A88000B8EE005AA6EEA56AE4EE867A67EE857AFF
:10A89000C7EE206AB7EE006A76EE865A76EE666AF2
:10A8A00086EE257A67EE277A66EE876AC0ED017A32
:10A8B000C0ED037A80ED007A80ED027AC0ED046A83
:10A8C00070479FED0D7A77EE677A75E7DFED157AC1
:10A8D000DEE79FED147A87E7DFED0D6AF4EEE67AA6
:10A8E000F1EE10FA44BFDFED076A76EEE77AB7E7DC
:10A8F00020A1070027D4D236DB0F4940DB0FC94027
:10A90000E4CB1641DB0F49C0E4CB16C1DB0FC93FD6
:10A91000DB0FC9BF9A7C2E36FAAF4FB93587083C9A
:10A92000A4AA2ABE0000000070B4344890F8C43CC9
:10A93000A3F13001092957D800F6C444224600F695
:10A94000D34012F8015FA5F13001092904D88242F1
:10A95000F7D1002070BC7047141B022C4ADD284838
:10A96000002101E010F8013B01EB810103EB410301
:10A97000161A303B022E044603F0FF01F2DC214B95
:10A9800003FB01F1A2424FF000030DD903EB830357
:10A9900014F8016B5B00303B3344A24203F0FF0329
:10A9A000F4D1194800FB03F32E2D06D01748A0FB65
:10A9B000032301EB930070BC704701320420002494
:10A9C000157804EB8404303D6400092D00F1FF305C
:10A9D000A4B202D82C44A4B2013210F0FF00EFD18F
:10A9E000642202FB0433E1E700211D4600F6C44265
:10A9F0000B46D9E7064C0021C4E700BF0015002034
:10AA0000C52100208096980040420F00ABAAAAAA58
:10AA1000C42100209B1A00FB03F090FBF1F01044CE
:10AA2000704700BF094BD3F8D40CD3F8D82CD3F817
:10AA3000DC3C824202DB114602460846984204DDB5
:10AA40009A42B8BF1A46104670477047001500205A
:10AA500030B4124A02F54E6019C88342D2F8EC1C99
:10AA6000D2F8F02C02DB1D46034628468A4202DB60
:10AA700015460A4629468842A8BF08469342B8BFF1
:10AA80001346A04202DC224604461046834203DA03
:10AA9000A342B8BF2346184630BC704700150020BB
:10AAA0000B6810B414681B1B036054684B681B1BB5
:10AAB00043608B6892685DF8044B9B1A8360704713
:10AAC0002DE9F041804684B0084616464FF024F93F
:10AAD0004FF47A72002304460D4654F0E9F9B6F9B2
:10AAE00000C00746294620464FF47A723C240023D2
:10AAF0000CFB047754F0DCF9002594B24FF47A7320
:10AB0000C3FB07452B46224601A84FF04FF8404BA8
:10AB100093F8F63C012B2FD0022B10D19DF8067034
:10AB2000FB1E082B0BD83B1F062B1BD9BDF80400BE
:10AB300039464EF0D1FF032F36D00B2F41D022469D
:10AB40002B4640464FF032F804B0BDE8F081032FA9
:10AB500055D00A2FF3D19DF80870B7FA87F77F090F
:10AB6000002FECD033882B4A3C33A4184FF000025E
:10AB7000338042EB0505E2E79DF80670FB1E072BCC
:10AB8000DDD83B1F052BEDD9BDF8040039464EF04A
:10AB9000A3FF9DF807309842D9D0033F18BF012783
:10ABA000002FDFD1CBE707380E28FCDC9DF80730FB
:10ABB000834212D0CCBF01270027002FD2D1BEE79D
:10ABC00007380728FCDC9DF8073083420ED0B4BF5D
:10ABD00001270027002FC5D1B1E79DF80870012F8C
:10ABE00094BF00270127002FBCD1A8E79DF808706B
:10ABF000012F8CBF00270127002FB3D19FE79DF8BD
:10AC00000870003F18BF0127002FABD197E700BFA6
:10AC10000015002080EE3600074BD3F8002DD3F846
:10AC2000F81CD3F8FC0CC3F8F80C5242C3F8FC1C17
:10AC3000C3F8002D704700BF0015002030B5046830
:10AC4000E46985B02CB10DF10F050095A04705B062
:10AC500030BD204605B030BD38B50A4C0A4D232121
:10AC6000D5F8040D4CF032FE14F8011F0029F7D17D
:10AC700006484CF065FE95F8083D13B1012385F8B0
:10AC8000093D38BD7CC506080015002088C50608AA
:10AC90002DE9F04F89B0CDE90621DFF8B0800746F5
:10ACA00099460026069B002B07DBB34205D00136F0
:10ACB000042EF7D109B0BDE8F08FEE2303FB06FBAD
:10ACC000079B03EB0B0A204B00249B44B9F1000FB8
:10ACD00033464246384601DBA14530D13BF814509B
:10ACE0003AF81410009415F4006FA1EB050114BF9D
:10ACF0004FF0560E4FF0480E05F01F0CB1FA81F1DF
:10AD0000C5F344154909CDE901C5CDF80CE005911D
:10AD100044F030FE3AF814300599009413F4006FB3
:10AD200003F01F0214BF56204820C3F34413CDE99B
:10AD30000123039033464246384644F037FE01343F
:10AD4000772CC3D1B3E700BF0C22002098C50608BA
:10AD50002DE9F04F3B4C3C4B94F80C593B4ADFF843
:10AD6000F4808946002D08BF1A4694F90D198BB05E
:10AD70000746374843F0AAFC04F55B744D460026AD
:10AD8000B9F1000F3ED022782B789A426A683BD006
:10AD9000D5E902CE0021A87D0790B5F914000690F0
:10ADA000B5F912000590B5F910000093CDE903E064
:10ADB000CDE9012C334642463846099144F0DAFD8C
:10ADC0000999A37D6268B4F914B0B4F912A0B4F97A
:10ADD00010E0D4E9020C079314F8183B0093CDE976
:10ADE00001203346CDE905ABCDE903CE424601361D
:10ADF000384644F0DBFD3C2E05F11805C0D10BB000
:10AE0000BDE8F08F4946DCE76168D5F808C091429B
:10AE100002D0D5F80CE0BDE7A168D5F80CE061459B
:10AE2000B8D1E1687145B5D1206929698842B1D1AD
:10AE30006069696920F07F4021F07F418842A9D193
:10AE40000121A8E7F8250020B4C50608D8CA0608DD
:10AE5000B8C50608C8C5060870B51D4E96F8F83284
:10AE60002DED028B04460D465BB3D6E9C012D6F831
:10AE7000083396EDBF8A8360C0E90012DFED158AC2
:10AE800095ED000A80EE280A56F01EFE236818444D
:10AE9000206028EE288A95ED010A80EE080A56F017
:10AEA00013FE63681844606095ED020A56F00CFECC
:10AEB000BDEC028BA3680246134496F8F802A36027
:10AEC00070BDC0E900338360B7EE008AD6E700BFEB
:10AED000F82500202C7D8E3F204BF0B493F8F842EB
:10AEE00034B900230360436083602046F0BC7047A0
:10AEF0000D68D3F80073D3F80463D3EDBF6A9FEDF8
:10AF0000186AED1B07EE105A4D68AD1B07EE905AFC
:10AF1000B8EEC77A66EE866AF8EEE77A27EE067A2A
:10AF200067EEA67A012A80ED007AC0ED017A0CD096
:10AF30008A68D3F80833D21A07EE902AF8EEE77A37
:10AF4000C0ED027A2046F0BC7047D1ED027AF8EEEF
:10AF5000E77AC0ED027A2046F0BC7047F825002061
:10AF60002C7D8E3F1D4A2DE97003546C1C4E002C25
:10AF7000D6F8A83503600EDD4832002306F5B56526
:10AF800001E09C4207D052F8041BA94203F10103DF
:10AF9000F7D1012200E00022D6F8B43583600271B7
:10AFA000104A96F8B83543711346F3E80289D3E99D
:10AFB0000045D6F8D83552F8042CD6F8D015816261
:10AFC0005B0943EAC2635209C0E90489C0E9064546
:10AFD000C0E90832BDE87003704700BF200B0120B4
:10AFE00000000020E0050020014BD3F82802704744
:10AFF00000000020014BD3F8B80270470000002089
:10B00000014BD3F870027047000000200C4608B5D1
:10B0100005462AF08DF820462AF08AF800210846D5
:10B020004AF09AF9002101204AF096F9284648F0A2
:10B03000D9FAC0B9204648F0D5FA0028F6D0012147
:10B0400000204AF089F9204648F0C4FA0146284613
:10B0500048F0EEFA002108464AF07EF9284648F00A
:10B06000C1FA0028E6D0012100204AF075F92846EF
:10B0700048F0B0FA0146204648F0DAFA00210846C6
:10B080004AF06AF9D6E700BFF0B500230B604B60C9
:10B090008B60CB600B610268DFF88CC089B004ADB7
:10B0A000C2F385572E4647FA03F0C007344604D54D
:10B0B00013F80C0004F8010B26460133062BF2D1DD
:10B0C0001748C2F303240444002394F8E04033708B
:10B0D0008DF8184000F1E80CC2F305370DF11906A0
:10B0E00047FA03F0C007344604D513F80C0004F8FF
:10B0F000010B26460133062BF2D100233370C2F335
:10B10000834406ABCDE90134084602F00F0305493C
:10B110000095C2F303124EF0FBFE09B0F0BD00BF74
:10B12000C0500608E8C506089851060810B4414A00
:10B1300092F8D530D2F8BC00023BD2E92D14062B90
:10B1400074D8DFE803F05A5C60500655040064428E
:10B150004942404280EAE073A3EBE07306EE903A86
:10B1600084EAE473A3EBE47307EE103AF8EEE66AC0
:10B170009FED316AB8EEC77A26EE866A81EAE173FE
:10B18000A3EBE17307EE903AB4EEC76AF1EE10FA62
:10B19000F8EEE77A04DDB4EEE76AF1EE10FA34DC9B
:10B1A0009FED256A27EE066AB4EEE76AF1EE10FA23
:10B1B00004DDF4EEC66AF1EE10FA2DD49FED1E6A9E
:10B1C00067EE867AB4EEE77AF1EE10FA2BD5F4EE5C
:10B1D000E76AF1EE10FA26D50029CCBF042005203D
:10B1E0005DF8044B70474B42404221461C46B1E794
:10B1F000634240420C461946ACE74942AAE74B423B
:10B2000061421C46A6E76442A4E70028CCBF0020A8
:10B2100001205DF8044B7047002CCCBF02200320B6
:10B220005DF8044B70474FF0FF30D9E723460C46DA
:10B2300019468FE7200B0120ABAA2A3F70B5294B96
:10B24000294C93F8681C93F8693CDFED286A94F860
:10B250004029D4F8645907EE101A07EE903AB8EE78
:10B26000C77AF8EEE77A27EE267A67EEA67A04EB3D
:10B270004206BDEEC77A0132FDEEE77A02F00F0119
:10B28000B6F8443984F8401917EE102A17EE901AD0
:10B29000C31A2B448A42C4F8643982B0A6F8440920
:10B2A0004FEA131312DC17EE101A17EE902A98B219
:10B2B00040F2FF35002300954FF0F4FD2A460021AF
:10B2C0004FF012FEA4F8680902B070BD9BB299421B
:10B2D000D4BF581A00208242A6BF101A80B20020A4
:10B2E000E6E700BF00150020F825002014AE23413A
:10B2F00038B503782DED0A8BD0ED01AA70EE609A77
:10B30000044669EEAAAAF0EE408AB0EE607A0D46D5
:10B31000B0EE41AAF0EE61BAB0EE42CAB0EE629A67
:10B32000002B61D1D0ED0B7A01F00103002B54D03A
:10B3300079EEE77AB0EE697A87EE8A0AD4ED090AE7
:10B3400084ED0B7AF5EEC00AF1EE10FA57DCD4ED7D
:10B35000032A20EE220A94ED0ABAD4ED057A20EEF3
:10B36000099A3AEE8B8A68EEA78A38EE098AB0EE1F
:10B370004C1A38EE288AF0EE6B0AB0EE480A4FF00D
:10B38000A3FDD4ED027A94ED047A84ED0E9A69EE71
:10B39000A77AF0EE4B6AEAEE276A6B0730EE488A2E
:10B3A000F0EE667A28EE078AC4ED0F8AEAEE087A94
:10B3B00084ED0CBAC4ED0DAA84ED100A08D5B0EEE8
:10B3C000CBBAB0EEE77AB4EECB7AF1EE10FA01D553
:10B3D000C4ED0A7ABDEC0A8B38BD77EE677AF1EEE0
:10B3E000677A87EE8A0AA9E711F001034FF000029D
:10B3F0000CBFF0EE607AF0EE697A027096E7B0EE7C
:10B400004A1A04F1180094ED038A4CF035FF28EE37
:10B41000000AA0E7064B13F8231C03F52A7203F574
:10B420002473002918BF134693ED020A704700BF2A
:10B43000F8250020F8B5384C384FB4F8D661B4F888
:10B44000CA317B822DED028B0D461EBBD7E905313B
:10B45000C01A65EB010153F0E5FCDFED317AB4F879
:10B46000CC31B4F8CE11B4F8D22107EE100A67EE51
:10B47000277A0B44FCEEE77A17EE905A2B449A4257
:10B4800039D3BDEC028BB4F8D401A8422CBF002004
:10B490000120F8BDFFF7BEFF07EE906AB8EEE78A1D
:10B4A000F0EE408AB4EEC80AF1EE10FA1FDAD7E9DE
:10B4B0000531C01A65EB010153F0B4FCDFED187AD9
:10B4C000B4F8CC31B4F8CE11B4F8D22107EE100A9A
:10B4D00067EE277A0B44FCEEE77A17EE905A2B447E
:10B4E000934210D8F4EEC88AF1EE10FAC9DBBDEC35
:10B4F000028B0120F8BD32F0F7FB0028C1D0BDEC73
:10B50000028B0320F8BD32F0EFFB0028F7D1FFF7E4
:10B5100081FFF0EE408AE5E700150020200B0120B6
:10B520006F12833A2DE9F04F2DED028B87B0044660
:10B53000324D039310460E46B0EE408A174652F045
:10B54000C5FED5F86CB99DF848A0DBF800308BF843
:10B550000B604FF0000820448BF80A00CDF8008003
:10B5600058463246D3F814B09DF84C903B462146DD
:10B57000D8479FED230A039B019328EE000A534608
:10B58000FDEEC07ACDF8008017EE901A424604A86E
:10B590000FF074FDD5F8703913B11B784B452AD0E4
:10B5A000D5F87C3913B11B784B4524D0D5F88839B0
:10B5B00013B11B784B451ED0D5F89439CBB11B780D
:10B5C000A3EB0909B9FA89F94FEA5919384652F03B
:10B5D0007DFE01340444E1B2D5F86C09CDF8009049
:10B5E00004AB32464AF01EF807B0BDEC028BBDE852
:10B5F000F08F9946EAE74FF00109E7E7F8250020C8
:10B600000000C84230B41C7884B1012C0CD1B3F9CD
:10B6100002408AB1157B94FBF5F40470B3F9043051
:10B62000527B93FBF2F30B7030BC70479A78027038
:10B63000DB780B7030BC7047054A82FB0452E4177C
:10B64000C4EB62040470B3F904301222E9E700BFCE
:10B65000ABAAAA2A30B41C784CB1012C05D1B3F99D
:10B660000220B3F9043002600B6030BC70479C7854
:10B6700052B1157BDB7815FB04F40460527B03FBAD
:10B6800002F330BC0B60704704EB4404A400DB7889
:10B6900004601222F3E700BF30B583B00C460546C4
:10B6A00001920DF0F5FF019B224629464AF070F801
:10B6B000094A92F9A03902EB430101335BB2352B01
:10B6C000C8BF0023012081F8A45981F8A54982F858
:10B6D000A03903B030BD00BFF82500200F4B93F810
:10B6E000582B012A12D910B582B004220C888B780D
:10B6F0008DF804000DEB02017420ADF805408DF8C3
:10B7000007302AF01DF9012002B010BD01D0002041
:10B71000704793F8593B622BE5D8F8E7F8250020ED
:10B72000F8B5214D1D260C46074685F8806B29F09B
:10B7300021FC002029F0AAFB082029F0A7FB0E20FD
:10B7400029F0A4FB304629F0A1FB042029F09EFB40
:10B75000042029F09BFB002029F098FB302029F0E1
:10B7600095FB002029F092FB204629F08FFB00205A
:10B7700029F08CFB29F0E0FB05F6843029F0EAFA89
:10B7800000B9F8BD95F8843B63B995F8853B302B3B
:10B7900000D03BB995F8863B23B995F8873B3B70C1
:10B7A0000120F8BD0120F8BDF82500202DE9F04F5B
:10B7B000B74CDFF8E492DFF8E4A22DED028B002213
:10B7C000002304F54075C9E946239FEDB28A87B08E
:10B7D0002E46A4F6943800270CE008EBC303227829
:10B7E000D3F8943E02B163B92F601834A64205F134
:10B7F00008053ED094F90130002BEEDA2378002BB7
:10B80000F2D02B79D807F0D4A168207926F04AFF2E
:10B8100021698346207B26F045FFA2780346252A2E
:10B82000E2D8DFE812F03600F6005100EF00210107
:10B830002A014F003100EC01F501FB01080203026F
:10B8400006011001180164006D00780081004C01B0
:10B850005C017601880190019601AE01B401BA0144
:10B86000C001C901DF01FD00B700D10091003D0119
:10B87000E00098F8A43F13B198F8A63F9BB907B031
:10B88000BDEC028BBDE8F08FBBF1000FACD00028FF
:10B89000AAD0237D01222A60DA07A6D52B7943F0AE
:10B8A00001032B71A1E798F8A52FD8F8A80F402124
:10B8B00048F0C0FF002388F8A63F07B0BDEC028B1C
:10B8C000BDE8F08F40F282639B45D4BF4FF0000B80
:10B8D0004FF0010B237DC5F800B0DB0785D5BBF128
:10B8E000000F82D02B7943F001032B717DE700FB21
:10B8F0000BF047F6FF7251464FF0F6FA8346E9E740
:10B900000028E7D09BFBF0F047F6FF7251464FF05E
:10B91000EBFA8346DEE75FFA8BF01946009326F0D8
:10B920009DFE009B9B46D5E75FFA8BF20190104687
:10B93000009226F0ABFE019B009A03EB000B5946E8
:10B94000104626F08BFEC5E707EE90BAF8EEE78AC0
:10B95000002868EE888A08BF4FF4FA73B0EE680AD0
:10B96000CDE900334FF02AFCF0EE407AB0EE680AE1
:10B97000F0EE678A4FF0A8FBC8EE807A009B07EED6
:10B98000103AB8EEC77A67EE877AFDEEE77A17EEDF
:10B9900090BA9FE707EE90BAB8EEE70A002808BF12
:10B9A0004FF4FA7320EE080ACDE900334FF006FC9D
:10B9B000009B07EE903AF8EEE77A27EE800AFDEE5C
:10B9C000C07A17EE90BA85E707EE90BAB8EEE70AAC
:10B9D000002808BF4FF4FA7320EE080ACDE90033BF
:10B9E0004FF072FBE4E700904FF47A725846002162
:10B9F0004FF07AFA009B00224FF47A71FFF70AF8B1
:10BA0000834667E78345ACBF4FF0000B4FF0010B57
:10BA100060E7ABEB000BBBFA8BFB4FEA5B1B59E714
:10BA2000D9F81831C9F8A0B143F08003C9F818312A
:10BA300050E7BBF1000F7FF42CAF002840F00281EB
:10BA4000D5F800B046E7584447F6FF7251464FF02C
:10BA50004BFA83463EE7ABEB000047F6FF725146D8
:10BA60004FF042FA834635E740F234539B45CCBF52
:10BA70004FF0000B4FF0010B2CE7ABF23550B0F557
:10BA8000A77F2CBF4FF0000B4FF0010B22E700BF48
:10BA90008C31002035FA8E3C200B01200080FFFF06
:10BAA0001A465846002100934FF01EFA009B0022D0
:10BAB00019464FF47A73FEF7ADFF83460AE75FFA43
:10BAC0008BF201901046009226F0E0FD019B009A57
:10BAD000A0EB030B5946104626F0C0FDFAE65FFACC
:10BAE0008BFBBBF1070F00F2AB80C2B2003A98F8B3
:10BAF000A51F18BF01220120524200FA0BFB4A4049
:10BB000002EA0B024A409B4688F8A52F88F8A60F48
:10BB1000E0E6D9F81831227D43F00103C9F8183165
:10BB2000D1074FF001032B607FF55FAE2B7943F017
:10BB300001032B7159E6D9F81831227DC9F87CB17F
:10BB400043F00203EAE7D9F81831227D43F00403F9
:10BB5000E4E7D9F884319B453FF446AED8F8940F1A
:10BB600002A947F0EBFB002847D058469DF80A2071
:10BB700001214FF0B9F98346C9F8840188F89A0F7A
:10BB8000A8E6D9F81831227D43F00803C6E7D9F8B2
:10BB90001831227D43F01003C0E7D9F81831227D17
:10BBA00043F02003BAE7D9F81831C9F894B143F04B
:10BBB0004003C9F818318DE6D9F898319B453FF418
:10BBC00013AED8F8940F02A947F0B8FBA8B15846B5
:10BBD000052201214FF088F98346C9F8980188F8B9
:10BBE000980F77E6D9F89C319B453FF4FDADD8F826
:10BBF000940F02A947F0A2FB38BB2860F5E5BBF122
:10BC0000000F7FF446AE00287FF443AE2860ECE5D9
:10BC1000BBEB000B18BF4FF0010B5BE6BBF1000F55
:10BC20003FF437AE00283FF434AEDDE5BBFA8BFBC2
:10BC30004FEA5B1B4EE65BEA03033FF42AAED3E513
:10BC4000834647E6C5F800B0CFE5584608220121F3
:10BC50004FF04AF98346C9F89C0188F8990F39E6F4
:10BC6000164991F8C42C32B3F0B4064600200346BE
:10BC7000074602E092F8C42CDAB100EB80002E2ACD
:10BC80004FEA400004D10133CA18324482F8C47C20
:10BC9000CA18A0F1300592F8C42CA2F13004092C86
:10BCA00098BF50190E2B03F1010301EB0302E1D9F8
:10BCB0000020F0BC70470020704700BF0015002036
:10BCC00070B5164ED6F8AC3F1A791E3A012A0546D1
:10BCD00005D91846002147F0ABFCD6F8AC3F002D43
:10BCE0000ADD0F4C254414F8011B184647F0A0FC50
:10BCF000A542D6F8AC3FF6D11846002147F098FC93
:10BD00000849B6F8D83FD1F8541B074AC6F8D01FE7
:10BD100001330021A6F8D83F516070BDF8250020FE
:10BD2000A835002000150020C835002010B50A4CA9
:10BD300004F5116009F02CFDD4F81C39C01A4FF03D
:10BD4000F7F80028B8BF404242F210739842D4BFBF
:10BD50000020012010BD00BFF8250020036813F06B
:10BD6000400004D013F4057F14BF01200020704769
:10BD70002DE9F04D244C254B254DC4F8043C84B0EE
:10BD800080460F461646C4F8085CFEF78FFB122368
:10BD900084F8D83B1F4AC4F8F82B04F6D833402067
:10BDA00042F6F82A4FF0000BC3E902AB29F048FC39
:10BDB000044610B3FFF7D2FF98F800C03978034665
:10BDC00094F9040000961C1E14BF03220122BCF14A
:10BDD000000F0CBF0723062301290CBF08210021F7
:10BDE0000B43CDE9012340212B460B4A29F076FB7A
:10BDF000E8352CB9003818BF012004B0BDE8F08D3B
:10BE000045F8A80CF6E700BF00150020E03500203B
:10BE10000836002061A10208EDB602080348044A72
:10BE200000F65B4100F65A40A2E700BF0015002073
:10BE3000400D03000348044A00F65B4100F65A40F7
:10BE400096E700BF00150020A086010008490138D0
:10BE5000002310F8012F222A04D001330F2B01F800
:10BE6000012FF6D1034A1344002283F8462070477D
:10BE7000451500200015002010B5084C82B00223A3
:10BE800044F8A43C019052F021FA0199C2B254F84E
:10BE9000A00C02B0BDE8104047F0A8BBF03600206F
:10BEA0002A490023421E01F89C3C043012F8013F4D
:10BEB00033B3413B332B21D8DFE803F01A20202095
:10BEC000203E35202020202C202020202020202330
:10BED0002020202020202020202020201A20202068
:10BEE000203E35202020202C202020202020202310
:10BEF00011F89C3C43F0080301F89C3C8242D5D1E8
:10BF0000704711F89C3C824243F0010301F89C3CCD
:10BF1000CCD1F5E711F89C3C824243F0100301F8C4
:10BF20009C3CC3D1ECE711F89C3C824243F00403F3
:10BF300001F89C3CBAD1E3E711F89C3C824243F003
:10BF4000020301F89C3CB1D1DAE700BFF0360020D3
:10BF500070B5C64C54F8986C84B02EB13046FFF7DB
:10BF6000FDFE002840F0728114F88C0CFCF7C2F939
:10BF700014F8943C834205461CD0002800F08281CE
:10BF8000C6B1BB4B96F9040093F82D20B2FA82F2A9
:10BF900052094FF4165100230225CDE901520091B8
:10BFA0001A46042129F09AFA44F8900C10B10123A2
:10BFB00004F8943C14F88B0CFCF79CF914F88A3CB8
:10BFC000834205461ED0002800F01C8154F8883CAE
:10BFD000C3B1A74A93F9040092F83420002A18BF8D
:10BFE00008224FF4964100230325CDE90152009128
:10BFF0001A46082129F072FA44F8840C10B1012382
:10C0000004F88A3CFCF73EFA54F8805C2DB12846CF
:10C01000FFF7A4FE002840F0FE8014F8700CFCF737
:10C0200069F914F87C3C8342064632D0002800F0BF
:10C0300032818F4B93F83730012B00F03B81022B7C
:10C040000CBF8C4A8C4A44F8742C15B32A7A002A07
:10C0500000F02D81022A00F03181012A40F03C815C
:10C06000844B44F8743C4FF4966395F904000093B4
:10C0700000250221019102952B462A46102129F024
:10C080002DFA44F8780C20B1012304F86F5C04F811
:10C090007C3C14F86E0CFCF72DF914F86D3C8342CF
:10C0A000054636D0002800F0A48054F86C3CD3B18B
:10C0B0001A7A002A00F0F880704901EB8202D2F867
:10C0C000F02093F9040000920023032101910293D0
:10C0D0001A464FF4807129F001FA44F8680C10B147
:10C0E000012304F86D3C624A654BB2F85E1092F889
:10C0F000605092F86100A3F8C61992F8621092F8A5
:10C10000632083F8CA5983F8CE0983F8CF1983F8DE
:10C11000D02914F8640CFCF7EDF814F8633C834262
:10C12000054627D058B34FF4FA70FEF7F9F854F8E3
:10C13000603CFBB11A6802F41072B2F5107F19D09E
:10C1400093F9040003214FF4E13200230825CDE9DF
:10C15000011500924FF400711A4629F0BFF944F816
:10C16000580C38B1424901220023086204F8632CBC
:10C1700004F85C3C14F8545C6DB104B070BD54F824
:10C18000580C29F08FF944F8585C04F8635C14F8F3
:10C19000545C002DF1D154F8503C002BEDD003221B
:10C1A00093F90400CDE901251A7A344B03EB82039D
:10C1B0004FF40021D3F8F03000932A462B4629F0A3
:10C1C0008DF944F8A00C0028D7D0294844F8485CE1
:10C1D000D0F8543B04F8445C03F51C5310333A3058
:10C1E00044F84C3CFFF75CFE012304F8543C04B0D7
:10C1F00070BD54F8680C29F055F944F8685C04F8EF
:10C200006D5C86E754F8840C29F04CF944F8845CA2
:10C2100004F88A5CF6E614F87C3C002B7FF439AF16
:10C2200054F8A83C002B3FF434AF114A44F8783C52
:10C2300092F83730012B48D0022B0CBF0D4B0E4B20
:10C2400044F8743C012304F87C3C22E714F8943C45
:10C25000002B7FF4AFAE54F8A83C002B3FF4AAAEFD
:10C26000012244F8903C04F8942CA3E6F036002018
:10C2700000150020AC090020B8090020C0500608B5
:10C280000000002054F8900C29F00CF944F8905C60
:10C2900004F8945C8EE654F8780C29F003F944F81D
:10C2A000786C04F87C6CF4E64FF4614209E74FF4D3
:10C2B0009643DAE60B4A44F8742CC6E64BB9094BB0
:10C2C00044F8743C4FF41663CFE6064B44F8743CD4
:10C2D000B8E74FF41663C8E6034B03EB8202D2F8CB
:10C2E000F030C2E6A0090020C050060870B5254C09
:10C2F000064604F1460051F0E9FF94F846502B2D14
:10C3000038D0302D27D0382D2ED01F49002301E002
:10C3100011F8015F0C464DB30133102BF8D13246B2
:10C3200006F11005134612F8011B222926D0AA4255
:10C33000F8D1002820DDC0F101001918621C01337A
:10C3400001E08B4218D013F8014D12F8010D844220
:10C35000F7D0002070BD94F84720A2F131010129E7
:10C3600003460DD9362A0BD00138CEE7002BF0D08A
:10C370004C1ED4E70538C8E7012070BD013BD8E763
:10C38000981EC2E700150020461500202DE9F04F49
:10C390002DED028B87B0884600AF164620B103789A
:10C3A000303B012B40F28481DFF83093DFEDC48A0B
:10C3B0009FEDC48A98F80030002B3CD036B1C24BB8
:10C3C0003268D3F8543B9A4240F2B983BF4C14F818
:10C3D000435C002D40F0B88214F8400CBC4B03EBDA
:10C3E0004003B3F8343163BB012304F8403CB94B3C
:10C3F0005A6A11061DD59A68920740F17D83B24AA8
:10C40000B2F8543112684FF4F36113FB01F389FB66
:10C410000301DB17C3EB611310203021C7F8133081
:10C42000082338747974BB7438180024904788F84E
:10C430000040002EBED11C37BD46BDEC028BBDE8CE
:10C44000F08F0130C0B2B3F58A6F04F8400C00F0F1
:10C45000848127D8B3F5806F00F025826AD9B3F5BF
:10C46000866F00F005824ED9B3F5886FE1D1DFF811
:10C4700058A29AF83130002BDBD0964ADAF8003017
:10C48000B2F9BC21C7F813201020402104223874CF
:10C490007974BA7438180024984788F80040002E40
:10C4A00088D1C8E7B3F5006F00F0328140F2878091
:10C4B000B3F5046F00F014816BD9B3F5116F00F080
:10C4C0001682B3F5206FB4D1824BD3F8B8319A06F7
:10C4D000AFD554ED017A7C4B67EEA87A1B68FCEE71
:10C4E000E77A102117EE902A0024C7F813200A22B9
:10C4F00039747C74BA747818984788F80040002E14
:10C500007FF458AF97E7B3F5826F00F0DF81B3F5A2
:10C51000846F8ED16F4B5A6A12068AD59A68950736
:10C5200040F1C582A26D684BC7F81320102020216E
:10C53000042242E0B3F5007F00F0768169D9B3F5BB
:10C54000047F7FF476AF634B5B6A9D077FF571AF25
:10C55000DFF874A19AF83230002B40F0B08214F862
:10C56000323C012B0CBF34F8243C34F8223CC7F891
:10C57000133010220221DAF800303A747A74B97458
:10C58000B8180024984788F80040002E7FF412AFB6
:10C5900051E7B3F5026F5ED14E4B5A6A11067FF533
:10C5A00048AF9A68920740F19A82474BD3F84421EA
:10C5B000C7F813201020202108221B6867E7B3F575
:10C5C000E26F00F014814ED9B3F5E46F7FF431AF20
:10C5D000DFF8F4A09AF83130002B7FF42AAF3D4BFE
:10C5E00093ED390A20EE080A55F06EFA1024202146
:10C5F0000722C7F813003C743819DAF80030797450
:10C60000BA740024984788F80040002E7FF4D2AE18
:10C6100011E7B3F5807F00F0C280B3F5887F7FF427
:10C6200008AF2C4BD3F8B8315B077FF502AF2A4B2C
:10C6300013F8231C03F52A7203F52473002918BF8D
:10C64000134693ED050A55F03FFA1F4AC7F8130049
:10C650001023012162E1B3F5036F3FF4C8AE002E51
:10C660007FF4A8AEE7E6B3F5C06F00F08780B3F5BE
:10C67000E06F7FF4DEAE144D95F83140002C7FF46E
:10C68000D8AE144B93ED370A20EE080A55F01CFA89
:10C69000102107222B68C7F813007C743974BA7410
:10C6A0007818984788F80040002E7FF483AEC2E6E1
:10C6B00001300621FCF708F8044B03F8430C73E63D
:10C6C000B80C473E0000C84200150020F03600209C
:10C6D000C0500608200B0120F82500201F85EB51D3
:10C6E000954B964AB3F9C031126803EB83035B00A4
:10C6F0001020C7F813304021082338747974BB74B4
:10C700003818904788F80050002E7FF453AE92E618
:10C71000894B5A6A15067FF58CAE9A68940740F1EA
:10C720000982C30700F1F281DFF810A2DAF83C2198
:10C7300082EAE273A3EBE27303EB5303A9FB031357
:10C74000DB08002AB8BF43F08043C7F8133010213C
:10C75000DAF8003000240822CAE6774B5A6A150638
:10C760007FF567AE9A68940740F1CB81734BB3F9BC
:10C770005621C7F8132010205021D9E6DFF8BCA1BC
:10C780009AF83530002B40F05E8122F0B3FD002492
:10C79000DAF80030C7F8130010210622A8E6664B2D
:10C7A000D3F8B83159077FF544AE654B634A13F8A7
:10C7B000230C116803F52A7203F52473002818BFAF
:10C7C0001346D3ED027AFCEEE77A102217EE903A88
:10C7D0000024C7F8133001233A747C74BB74B81872
:10C7E000884788F80040002E7FF4E4AD23E6534DDF
:10C7F00095F83140002C7FF41CAE4F4B93ED380A76
:10C8000020EE080A55F060F910230721C7F813003D
:10C810002A683B747B74B974F818904788F8004014
:10C82000002E7FF4C7AD06E6434B5B6A18057FF523
:10C8300000AE14F8343C002B3FF4FBAD3F49414AB5
:10C84000B1F90A347D7482FB0302DB17C3EBA20348
:10C850001BB210240220B8740A68C7F813303C7465
:10C860003819904788F80050002E7FF4A3ADE2E518
:10C87000324B93F83120002A3FF4DBAD2E4A1B687F
:10C88000B2F9BE21C7F81320102230213A740422D5
:10C890007974BA7407F11000984788F80050002E98
:10C8A0007FF488ADC7E5FBF7D1FC244BC7F8130034
:10C8B000102104221B687D743974BA747818984763
:10C8C00088F80050002E7FF475ADB4E51A4B5A6A13
:10C8D00015067FF5AEAD9A68940740F10881FBF725
:10C8E00041FE164AC7F813001023042116E0124B2C
:10C8F0005B6A99077FF59DAD14F83F3C4BB114F886
:10C90000322C012A0CBF34F8242C34F8222CB2FB30
:10C91000F3F30A4AC7F813300921102312683B7455
:10C920007B74B974F8180024904788F80040002EF2
:10C930007FF440AD7FE500BF200B012000150020F3
:10C94000F825002067666666DFF83CA207F1080359
:10C950003B61DAF81C9007F10E037B61D9F80020E7
:10C96000DAF814309A426E4614F8423C00F08280A5
:10C9700007F109023A615A1C04F8422C03F00F0334
:10C980000522D9F804B03B7294461346D9F800103A
:10C99000ABEB010BD01D5FFA8BFB20F00700DC45F1
:10C9A000ADEB000D40F2D4805A46684658F0F4F8DA
:10C9B000D9F800305B44C9F800305A46694607F19F
:10C9C00010004DF06BFADAF81C20DAF81430D9F8C0
:10C9D0000000117AC9F80400C21A4A40D2B2834258
:10C9E000C9F8003004F8412C0AD00133C9F80030EE
:10C9F00013F8011C984282EA0102F6D104F8412C96
:10CA00003B69591C39611A70D7E90432D21A012ADC
:10CA100008DD00215A1C3A611970D7E90432D21A94
:10CA2000012AF7DC07F10800FBF750FB0025002383
:10CA30001C37B54604F8435C88F80030BD46BDECB1
:10CA4000028BBDE8F08F4F4A526A12057FF5F1ACB8
:10CA500014F8342C002A3FF4ECAC012B00F08F804A
:10CA600054F8203CC7F813301021DAF800300024C5
:10CA700006223DE5B9F90C20591C03F00F0343F0E1
:10CA80001003002AB8BF43F0200307F109023A61FE
:10CA90003B72D9E9003B0422ABEB030304F8421CD0
:10CAA00007F10A017B723961134694466EE71B68F1
:10CAB00018077FF537AD002E7FF47CACBBE414F88B
:10CAC0003F3C002B3FF453AD14F8322C012A0CBF2D
:10CAD00034F8242C34F8222CB2FBF3F347E51B681E
:10CAE0001B077FF562AD002E7FF464ACA3E41B68E6
:10CAF00018077FF5F4AE9CE41B681B077FF57FAC3D
:10CB000097E41B6818077FF531AE92E4DFF878A050
:10CB1000DAF8402182EAE273A3EBE27303EB5303FA
:10CB2000A9FB0313DB08002AACBF43F0004343F02A
:10CB300040430AE61B6819077FF5F3AD79E400234B
:10CB40001C3788F80030BD46BDEC028BBDE8F08F85
:10CB50006846C7E9003258F01FF8D9F800107A6823
:10CB60003B681144C9F8001007F110001A466946E5
:10CB70004DF094F907F10800FBF7A8FA57E7DAF847
:10CB80000C346FE7200B0120001500202DE9F04147
:10CB9000DFF8208198F8ED30012B82B002D002B08E
:10CBA000BDE8F081D8F804000028F8D0D8F8543B4C
:10CBB0003E4C3F4E01330025019304F15C078DF894
:10CBC00003500AE01B2B84F8645048D00D2B5CD036
:10CBD000012386F8D139D8F8040003685B689847C8
:10CBE000002849D0002D47D1D8F804000368DB683D
:10CBF000984783B27E2B4BD096F8D129002AEAD1F0
:10CC000094F86420002ADDD17D2B4BD094F8682065
:10CC10002AB180F02003D8B284F86850034694F813
:10CC20006320062A0BD8B4F866C0A1186344013209
:10CC3000A4F8663081F85C0084F86320CBE7B4F890
:10CC400066201344C3F3072252FA83F30122A4F8A7
:10CC50006630FF2B08BF3D4686F8D129BBE7D8F8E0
:10CC6000040003685B6898470028B1D101238DF860
:10CC7000033086F8D139AEE7284601AA0DF1030149
:10CC8000FFF784FB02B0BDE8F081A4F86650A2E78C
:10CC900001238DF8035084F8635086F8D15984F845
:10CCA000643098E7012384F8683094E7F036002078
:10CCB0000000002000150020074A12F8231C02F58E
:10CCC0002A7302F52472002908BF134603EB800380
:10CCD00093ED030A704700BFF8250020054B93F839
:10CCE000ED200AB1002070470222186083F8ED2081
:10CCF0000120704700150020F0B5214C214DC4F8EB
:10CD0000045C85B0FDF7D2FB12231F491F4A84F84B
:10CD1000D83B42F6F82604F6D83300274020C3E972
:10CD20000267C4F8F81BC4F8FC2B28F089FC28B370
:10CD300094F85B3C94F85A1C90F90400144A022BB6
:10CD400014BF08230023002908BF43F00103032474
:10CD50004FF4E131CDE9014300910023402128F057
:10CD6000BDFB6C3DC5F89000014620B10948FFF7B6
:10CD7000B5FF85F89400081E18BF012005B0F0BD6E
:10CD8000001500205C370020D1B8020825C4020835
:10CD900049BC0208A5AA020810B50C4C94F8ED3065
:10CDA0000BB1002010BD202028F04AFCC4F8F00090
:10CDB00050B1202128F03AFC054B84F8EE00012008
:10CDC000236084F8ED0010BD012010BD0015002087
:10CDD000F580000870B5104E96F89B50C2B0AC1D9F
:10CDE000224606F19A01684657F0D6FEB6F898300A
:10CDF0000DF804300DEB040208351B0A6C46537025
:10CE0000254414F8011B56F8680C46F011FCAC429E
:10CE1000F7D142B070BD00BFF03600202DE9F04FD1
:10CE2000D24CD34FDFF8608393B004F53A7654F8D0
:10CE3000680C46F0D7FB002800F08C8054F8680C92
:10CE400046F0C8FB94F8AB310022054684F8A821CF
:10CE50000A2B00F2FE87DFE813F0BF00BF00990144
:10CE6000700157013E0122010101DD0080008000B8
:10CE7000022D2A46BF4928BF0222002502A8ADF88C
:10CE8000085057F089FE9DF80830012B40F03E8293
:10CE9000B94A94F8DD0192F90D5994F8DE1194F82D
:10CEA000AE21ADF820508DF822008DF82310B34D3F
:10CEB000089E84F89D30511C40F2FE4042F6FA4331
:10CEC00084F89C2084F8AE11A4F89A00C4F8A060FD
:10CED000291DA4F89E3004224FF6FF7001E015F8DA
:10CEE000012B424082EA0212D2B2130983EA1023D4
:10CEF00043EA0223A94283EAC200F0D1A04DA4F87C
:10CF00009800291D15F8012B82EA000383EA031219
:10CF1000D2B2130983EA102383EA022383EAC2030D
:10CF200098B28D42A4F898001BB2EBD183F0DD02D9
:10CF300082EA0212D2B2130983EA102383EA02239F
:10CF400083EAC2031BB2A4F89830A4F8A430FFF718
:10CF500041FF012013B0BDE8F08F0A2B06D0B4F8D2
:10CF6000E82283B2B3EB122F00F0298194F8ACA130
:10CF7000844804EB0A094FF48872314689F8F1526B
:10CF800057F00AFE99F8F11299F8F02294F8AD31B1
:10CF900094F8AA0194F8EBC2B4F8B0E184F82CA795
:10CFA00042EA012201330121A4F8D821FE2D4FF0DD
:10CFB000000284F82D3784F8DBC184F82B1784F83D
:10CFC000AA11A4F83207A4F830E784F8A82100F0E9
:10CFD000A18184F8AB112AE7FE2800F0048394F8BD
:10CFE000EB5294F8AC1194F8AD2194F8AAC1B4F8BE
:10CFF000B0E184F8DB510132002084F82B3784F84B
:10D000002C1784F82D27A4F830E7A4F832C784F849
:10D01000AA010CE794F8EF02B4F8E8C294F8AC1156
:10D02000384490F8603183EA0C0383EA0313DBB2DF
:10D030001A0982EA1C2242EA032282EAC303621826
:10D04000D8B2A4F8E832854214BF0A23092382F833
:10D05000F05294F8EB5284F8AB31C4E794F8AC1179
:10D060006218013182F8F002B4F8E8C294F8EB5289
:10D0700080EA0C0080EA0010C0B2020982EA1C2299
:10D08000C9B242EA002282EAC000A94284F8AC1187
:10D09000A4F8E802A7D1082384F8AB31A3E7B4F8D9
:10D0A000E82284F8EF02504080EA0010C0B2030981
:10D0B00083EA122343EA002394F8EB5283EAC00088
:10D0C000A4F8E802002D40F02F81082394F8AC1159
:10D0D00084F8AB3187E7B4F8E82294F8AC1184F80F
:10D0E000EE02554085EA0515EDB22B0983EA1223BD
:10D0F00043EA052383EAC5050623A4F8E85284F829
:10D10000AB3194F8EB526EE7B4F8E82294F8AC1126
:10D1100084F8EC02554085EA0515EDB22B0983EA47
:10D12000122343EA052383EAC5050323A4F8E85242
:10D1300084F8AB3194F8EB5255E7B4F8E82294F850
:10D14000AC1184F8ED02554085EA0515EDB22B09C6
:10D1500083EA122343EA052383EAC5050523A4F8DD
:10D16000E85284F8AB3194F8EB523CE7F0360020FB
:10D17000C0500608D0380020F82500208C37002049
:10D1800090370020C8380020FFFFFE00B4F8E812F6
:10D1900084F8EB0280EA010383EA0313DBB21A0985
:10D1A00082EA112242EA032282EAC3020021042316
:10D1B000A4F8E82284F8AC1184F8AB3113E794F8B2
:10D1C000AC91CB4804EB0902012382F8F1523146BD
:10D1D0004FF4887284F8A83184F8AB3157F0DCFC46
:10D1E000B4F8B03194F8EC2284F8AD210BB9A4F86E
:10D1F000B23101339BB20132A4F8B031A4F8303718
:10D2000094F8DF1194F8EB5284F82D27012394F859
:10D21000AA2184F82B37002384F82C9784F8DB515B
:10D22000A4F8322784F8AA312D296FD801A353F826
:10D2300021F000BF2FCE00080DD300080DD3000849
:10D240000DD300080DD300080DD300080DD300083E
:10D250000DD300080DD300080DD300080DD300082E
:10D260000DD300080DD300080DD300080DD300081E
:10D270000DD300080DD300080DD300080DD300080E
:10D280000DD300080DD300080DD300080DD30008FE
:10D290000DD300080DD300080DD300080DD30008EE
:10D2A0000DD300080DD300080DD300080DD30008DE
:10D2B0000DD300080DD300080DD300080DD30008CE
:10D2C0000DD300080DD300080DD300080DD30008BE
:10D2D00005D50008EDD200080DD300080DD30008D5
:10D2E00071CE000821D4000835D30008042D2A4649
:10D2F000804928BF0422002501A8019557F04CFC65
:10D300009DF80680B8F1010F00F07681002013B07F
:10D31000BDE8F08F02214FF6FF7384F8EB2284F80A
:10D32000AB11A4F8E83282E5072394F8AC1184F835
:10D33000AB3158E6022D2A466E4928BF022200254D
:10D3400002A8ADF8085057F027FC9DF80860012EA0
:10D35000DCD108F0F7F894F8DE2194F8DD318DF88F
:10D3600022508DF820308DF82120089A94F8AE31A3
:10D37000614D84F89D60591C160C40F2FE30A4F8F3
:10D38000A02042F6FA7284F8AE11A4F89A00A4F82C
:10D390009E2084F8A26084F89C30291D03224FF659
:10D3A000FF7001E015F8012B424082EA0212D2B26E
:10D3B000130983EA102343EA0223A94283EAC20045
:10D3C000F0D14E4DA4F89800E91C15F8013B4340FC
:10D3D00083EA0312D2B2130983EA102383EA0223F9
:10D3E00083EAC20398B28D42A4F898001BB2ECD134
:10D3F00083F0990282EA0212D2B2130983EA10235F
:10D4000083EA022383EAC20293B2190A84F8A320B2
:10D41000A4F8983084F8A410FFF7DCFC012099E50B
:10D42000042D2A46334928BF0422002502A802956C
:10D4300057F0B2FB9DF80A30012B7FF467AFBDF8BF
:10D4400008203C2A40F28C812D4A1268510740F195
:10D45000B28294F8DE1194F8DD218DF822308DF837
:10D4600020208DF82110089994F8AE21224D84F8DF
:10D470009D300B0C561C40F2FE3084F8A23042F670
:10D48000FA73A4F8A01084F89C20A4F89A0084F8F9
:10D49000AE61291DA4F89E3003224FF6FF7001E013
:10D4A00015F8012B424082EA0212D2B2130983EA34
:10D4B000102343EA0223A94283EAC200F0D10F4DB0
:10D4C000A4F89800E91C15F8012B82EA000383EA0E
:10D4D0000312D2B2130983EA102383EA022383EAF8
:10D4E000C20398B28D42A4F898001BB2EBD17FE73B
:10D4F000C8380020D03800208C370020903700201A
:10D50000200B01202522002108A857F030FD252DF1
:10D510002A46D54928BF252208A857F03DFB9DF88B
:10D520004030012B7FF4F2AED04A1268520700F16E
:10D5300073819DF8442032B1BDF83E2022F00401F1
:10D54000102900F0DE8194F8DE3194F8DD218DF8A9
:10D55000093003238DF808208DF80A30029A94F8D8
:10D56000AE11A4F8A020120CC14D84F8A22040F204
:10D57000FE324E1C0120A4F89A2042F6FA7284F87A
:10D580009C1084F89D0084F8AE61291DA4F89E20AB
:10D590004FF6FF7001E015F8013B434083EA0313A7
:10D5A000DBB21A0982EA102040EA0320A94280EA8D
:10D5B000C300F0D1AF4DA4F89800E91C15F8012B79
:10D5C00082EA000383EA0312D2B2130983EA10232A
:10D5D00083EA022383EAC20398B28D42A4F898003A
:10D5E0001BB2EBD104E7022394F8AC11C4F8E88233
:10D5F00084F8AB310025F6E49F4BBDF8046093F945
:10D600000D399E4280F22782701CC0B202A907F039
:10D61000A7FFDDED037A9FED996ADFED995A9DF83A
:10D620000820ADF83C60F8EEE76ADDED047A94F886
:10D63000DD118DF84350B8EEE77ADDED057A8DF80F
:10D640004480F8EEE77A86EE865A042A4FF000030B
:10D6500094F8DE21089315BF03260226102014201B
:10D660008DF84260ADF83E0009930A930B93C7EE24
:10D67000066A8DF840108DF841200DF12009DFF881
:10D68000F4C1E64642F2FE5B42F2FA7AACF10407DC
:10D6900025264FF6FF7587EEA57A8DED0C5ACDED58
:10D6A0000D6A8DED0E7AB9E80F00AEE80F00B9E80B
:10D6B0000F00AEE80F0099E8030094F8AE314EF881
:10D6C000040B5A1C84F89D808EF8001084F89C305E
:10D6D00084F8AE21A4F89AB0A4F89EA001E017F84F
:10D6E000016B86EA050383EA0313DBB21A0982EAB7
:10D6F000152242EA0322BC4582EAC305EFD15D4907
:10D70000A4F8985001F1250011F8013B6B4083EA21
:10D710000313DBB21A0982EA152282EA032282EAA3
:10D72000C3039DB28142A4F898501BB2ECD183F0A0
:10D73000FE0383EA0313DBB21A0982EA152282EAA6
:10D74000032282EAC3039AB2110A84F8C530A4F80E
:10D75000982084F8C610FFF73DFB0120FFF7FABBC5
:10D7600094F8DD1194F8DE018DF8221094F8AE11D2
:10D770008DF823003E4EADF82050481C089FC4F899
:10D78000342784F89D3040F2FE4242F6FA0384F8D2
:10D790009C1084F8AE01A4F89A20C4F83857C4F855
:10D7A000A070311DA4F89E3004224FF6FF7001E0F6
:10D7B00016F8012B424082EA0212D2B2130983EA20
:10D7C000102343EA0223B14283EAC200F0D1294D7B
:10D7D000A4F89800291D15F8013B434083EA031281
