:020000040800F2
:100000000000012021900608B9900608793E0408F6
:10001000B9900608B9900608B990060800000000DB
:10002000000000000000000000000000B990060879
:10003000B990060800000000B9900608119805085C
:10004000B9900608B9900608B9900608B990060854
:10005000B9900608B990060829A505083DA5050828
:1000600039A5050835A5050831A50508595B060819
:10007000455B0608315B06081D5B0608095B060840
:10008000F55A0608E15A0608B9900608B99006081C
:10009000B9900608B9900608B99006082DA505087C
:1000A00055510608115206084151060835520608F6
:1000B00001520608ED510608D9510608C167060825
:1000C000CD670608A9670608B5670608B99006084F
:1000D000B990060831500608255006081950060840
:1000E00025A50508B9900608B99006082D510608FF
:1000F0008D51060869510608B1510608CD5A060807
:10010000B9900608B9900608C5510608B9900608C6
:10011000B99006080D500608B9900608C5330608C0
:10012000B95A0608A55A0608915A06087D5A0608C3
:10013000695A0608B9900608B9900608B9900608E9
:10014000B9900608B9900608B9900608F541060866
:10015000555A0608415A06082D5A06080150060845
:10016000916706089D670608B9900608B9900608C9
:10017000B9900608B9900608B9900608000000007A
:10018000B9900608B9900608F54F0608E94F060829
:10019000B9900608B9900608B9900608B990060803
:1001A0000000000000000000B9900608B9900608A1
:1001B000B9900608B9900608B9900608B9900608E3
:1001C000B9900608B990060800000000B99006082A
:1001D000B9900608B9900608B9900608B9900608C3
:1001E000B9900608B9900608B9900608B9900608B3
:0801F00000000000B9900608B0
:0801F800608B0600010000000D
:10020000F83C0220020A000005021F58183D022097
:100210000208000108012C00383D022002130000F2
:1002200000001400583D02200116000000021E00CC
:10023000783D0220011C000000020D00983D0220C4
:10024000011D000000020E00B83D0220011E00004A
:1002500000021E00D83D02200119000000020C001F
:10026000F83D0220011A000000020E00183E022094
:10027000011B000000020C00383E02200127010093
:1002800000021800583E0220011F00000002480032
:10029000783E02200120000000024900983E022022
:1002A0000121000000024A00B83E022001220000A5
:1002B00000024B00D83E02200123000000024C0047
:1002C000F83E02200124000000024D00183F0220E9
:1002D0000125000000024E00383F022001260000E8
:1002E00000024F00583F0220012A000000021400C3
:1002F000783F0220012B000000022900983F0220D5
:10030000012C010000022800B83F02200230060044
:1003100000035400D83F0220012F000000003C00E1
:10032000F83F0220012D000000004000184002208C
:08033000013200000000200072
:020000040801F1
:1000000009284FF00103F0B407D903EB83035B0029
:10001000B0FBF3F2092AF8D84BB30026DFF858C03A
:10002000ACFB03720D46B0FBF3F4002C03FB140091
:100030004FEAD202D4BF0027012756B94FB9092B86
:100040003E4612D8303405F8014B00232B70F0BC2B
:100050007047092C06F10106CCBF57213021092B2E
:100060000C4405F8014B2946EFD91346D8E70D4655
:1000700000232B70F0BC7047CDCCCCCCF0B5002366
:100080000E680DE0BCF1050F17D9BEF1050F18D8A9
:100090000A2C16D103EB830316F8010B04EB430380
:1000A000A0F13005A0F1610CA0F1410EA0F13704E0
:1000B000EFB2092FE6D82C46ECE7A0F157040A2C42
:1000C000E8D00E601360F0BD2DE9F04F02238A46A0
:1000D0008B462DED108B93B0DFEDBB8A0E9303465C
:1000E000109004330F9211934FEADA06109DDDF859
:1000F00044C04FEACA0305EB46110D96F0004FF0DD
:10010000000E01EB061437010390A6EB8602009463
:10011000029706EB460804EBC202041D381D06EBED
:1001200086072C44C6EBC60901972844019D02EBC3
:1001300046174FEAC909ED0001EBC60601954FEAE3
:10014000081504954FEAC80505950D9D4FEA451819
:10015000009DD1ED006AD64495ED007A96ED003A07
:10016000F34597ED004A1CED015A50ED017A14ED6C
:10017000016A75EE262AD2ED005A35EE665A76EE01
:10018000033A77EE876A36EE436A77EEC77A35EE42
:10019000847A75EEC45A72EEA64A72EEE62A76EEBC
:1001A000656A33EE874AF0EE451AA6EEE85A34EE59
:1001B000843A74EEC44A36EE256A0CED013AB0EE8C
:1001C000672AC1ED004AE6EEA81AD7ED015AB0EE53
:1001D000453AD5ED010AA6EE282A96ED015AE6EE3B
:1001E000687AD4ED006A33EEC76A92ED014AD0ED29
:1001F000004A76EEC53A34EE658A91ED010A76EE54
:10020000856A9CED007A34EEE05A34EE254A33EEEE
:10021000881A77EE405A74EEA04AF0EE450A73EE63
:10022000C83AA1EE685AE1EE280A37EE007AB0EE3D
:10023000651AE3EEE85AA3EEA81A76EE843A76EE53
:10024000C46A37EE244A37EE647A32EEA60A74EEB8
:10025000234A72EEE66A34EE634A77EE462ACCED24
:10026000004A36EE077A9C4481ED014A71EEA03ACD
:1002700000ED010A33EE054AC5ED006A71EEE04A71
:10028000C0ED002A33EE455A85ED017A31EE426A1F
:1002900035EEE77A44ED013A72EE016AC7ED004AA5
:1002A00077EEA57A86ED004A194482ED005A1D4486
:1002B00084ED006A1844C7ED016A1C4486ED017A9A
:1002C0001F44C2ED017A1E441A443FF642AF0D9A14
:1002D000072A40F2A081039A08F10808109F09F14B
:1002E00008000832019E049D94463A460836059C53
:1002F00042440835083402990A9207EB0C020C318B
:100300004FF000080992BA1908927A1907923A191F
:1003100006923A1805927A18039207F10C02049299
:10032000012202920E9ADDF80CC090440F9A049FAD
:1003300002EBC802059EA8EB880E069D02EBC801E1
:1003400092ED00DA079C01EBC802D1ED00CA0898D3
:1003500002EBC80192ED00CA01EBC802D1ED00BA70
:1003600002EBC80192ED00BA01EBC802D1ED00AA80
:10037000099902EB0E1E92ED00AA0A9A0EEBC8092B
:10038000DEED019A0B9209EBC80299ED019A0C91EE
:1003900002EBC80992ED018ADDF808E009EBC8021A
:1003A00099ED010A02EBC809D2ED010AD9ED017AF3
:1003B00009EBC802CDED007AD2ED017ADDE90B211F
:1003C000CDED017A02E000BFF304353FD0ED003AF5
:1003D000D64492ED007AD4ED007AF34595ED006AAB
:1003E000D6ED006A57ED014A1CED015A91ED004A25
:1003F00034EE872A74EEC74A97ED00FA35EE277A75
:1004000074EE232A35EE675A76EE267A72EE07EA04
:1004100036EE666A32EEA73A34EE634A32EE472A87
:100420007EEE836A34EE067AB0EE45EA47ED016A65
:1004300034EE464AD0ED016AA7EE685A91ED016AA2
:10044000A7EE28EAD6ED013AF0EE64DA95ED017AEE
:1004500076EE66FA92ED011A76EE266A37EE636A58
:100460007FEE415AE4EE28DA72EEE72ADCED007AFC
:10047000E4EE684A94ED014A37EE237A77EEC41A27
:100480007FEEC63A77EE847A3FEE866AB0EE654A32
:10049000E3EEE85A3FEE01FAA3EEA84AF0EE613A25
:1004A000E6EE681A36EE871AE6EE283A36EEC77A96
:1004B0003EEEC33A74EE4EEAB0EE616A7FEE271A62
:1004C0007FEE677A72EE076A31EEC1FA32EE477A52
:1004D00037EEE22A72EEA77A7DEEA32A7DEEE33AAA
:1004E00075EEC5DA35EE255A60EE0F5A63EE40FA26
:1004F0003EEE044AEBEE835A34EE86EA74EEC64AC8
:1005000026EEC96AEBEE8FFA9DED00FA71EE811AC4
:10051000B0EE653A69EE025AACEE826A9DED002AB1
:100520002FEE27FAC7ED001AECEEA65A82ED003A3C
:1005300027EE422AC2ED01FA69EEAE6A1F44AAEE26
:1005400087FA1A4422EEE97A8CED006AAAEEA72A0D
:10055000DDED017AEDEE226ADDED012AADEE2E7AB7
:100560004CED015A67EE847A9C4463EEE22A84EDF6
:1005700000FA6EEE60EAEAEE237A84ED012AEAEEF2
:10058000042AC1ED006AEBEE2DEA81ED017A60EEFE
:10059000AD3A1C4428EE054A194464EEC8DAEBEE85
:1005A0000E3AC6ED007AACEE244AC6ED012AECEE16
:1005B00005DA1E44C0ED003AC0ED01EA184485EDAD
:1005C000004AC5ED01DA1D443FF600AF0A99029AD0
:1005D000083101320A91099902920831099108996A
:1005E0000831089107990831079106990831069159
:1005F000059908310591049908310491039908314E
:1006000003910D9991427FF48DAE0E9B8A46DB00DB
:100610009BB20E9368E513B0BDEC108BBDE8F08F74
:1006200000B5034683B03221074A68468DF80010B2
:1006300019689B881268CDF80110ADF80530904715
:1006400003B05DF804FB00BFC8260120204B2DE954
:10065000F041002406465D6800F1070806E03946CF
:100660001B6898473C444645A4B214D016F8017B59
:1006700028467D21A7F17D03012B2B68EFD81B684D
:1006800098472B6887F0200128461B689847E9E7C0
:10069000E3B203EB1424FF2CFAD8C4F1FF04E4B254
:1006A000A4F17D03012B2B6805D9214628461B6840
:1006B000BDE8F041184728467D211B6898472B6804
:1006C00084F0200128461B68BDE8F041184700BFB0
:1006D000C82601200A4AD369F0B41C68002756696D
:1006E0004FF6F6751981611C9F81C3E900162070D1
:1006F000D36951691A689D81C3E90012F0BC704743
:10070000C8260120F8B5CE1E0F464FF6FF730239FA
:10071000421E0446064412F8015F5B1BB2429BB2C4
:10072000F9D14354C5191B0A054E05F8013C14F8CC
:10073000011B306A49F0F4F8A542F8D1F8B2F8BDCF
:10074000C826012070B50B4682B0082460F05F0215
:100750001E14ADF8023000251B0E214668468DF8A8
:1007600001208DF804608DF805308DF80040ADF85B
:100770000650FFF7C7FF02B070BD00BF062260F051
:100780005F0330B583B00D46002411466846ADF8CE
:1007900002508DF801308DF80020ADF80440FFF7CD
:1007A000B1FF03B030BD00BF264A274B11680B4094
:1007B000002B0CBF012002204B07536848BF0430B8
:1007C000D90701D50A3080B29A0701D5143080B21A
:1007D000D90501D5283080B25A0701D5643080B2DE
:1007E000190701D5C83080B29A0602D500F5C87045
:1007F00080B2D90602D500F57A7080B2DA040ED53F
:1008000000F5FA5080B2990403D542F21072024406
:1008100090B29A0509D50D4B034498B2704719055B
:100820000AD500F5FA6080B2EDE75B0503D544F622
:100830002063034498B270475A06E4D500F57A6005
:1008400080B2E0E70000002080FFFF0F409CFFFF28
:10085000022805D0A0F10100B0FA80F040097047ED
:10086000054B93F82C3023B9044B1868C0F3800073
:100870007047102032F086BFC826012000000020FB
:10088000014B93F864007047C8260120424B0138A1
:10089000F0B4424CC825A36604F16D0204F1A7012F
:1008A0004D2384F86C5027E0DDB25BB2002B33DBC4
:1008B0006B00DDB25BB2002B35DB6D00EBB26DB2CD
:1008C000002D37DB5D00EBB26DB2002D39DB5D0032
:1008D000EBB26DB2002D3BDB5D00EBB26DB2002DD3
:1008E0003DDB5D00EBB26DB25B00002DB8BF83F065
:1008F000D5038A42DBB238D010F8015F6B4002F8B2
:10090000015B13F0800F4FEA4303CDD083F0D50590
:100910006BB2EDB2002BCBDA6D0085F0D5056BB272
:10092000EDB2002BC9DA6B0083F0D5035DB2DBB208
:10093000002DC7DA5B0083F0D5035DB2DBB2002D7A
:10094000C5DA5B0083F0D5035DB2DBB2002DC3DAFC
:100950005B0083F0D5035DB2DBB2002DC1DA5B0032
:1009600083F0D5035DB2DBB2BEE70D4D402784F8BE
:10097000A730A5F1440684F8A8300FCE0FC50FCEDE
:100980000FC50FCE0FC596E80F0085E80F0084F85D
:10099000EC70F0BC704700BFC83E7BEAC82601205F
:1009A0007427012038B50D460446FF2100682A4609
:1009B0005EF0E2F822682A44226038BD02680E2107
:1009C00070B5561C7F250024066015700268551C02
:1009D00005601470FFF7E6FF012070BD30B53E4C96
:1009E00085B094F8ED30012B01D005B030BD94F8FE
:1009F000EE00022826D0A0F10100B0FA80F04009F4
:100A000048B36368002BF0D1D4F8F020002AECD072
:100A100094F83400032594F82D10002892F904006E
:100A200001954FF4614214BF0825002500921A4633
:100A3000002908BF45F00105202102952CF046FA57
:100A40006060D2E794F82C305BBB244B1868C0F38D
:100A500080000028D5D16268002AC6D0D4F8F830CA
:100A6000934223D0D4F804319A4228D0D4F81031DC
:100A70009A4226D0D4F81C319A4216D0D4F82831A4
:100A80009A4220D0D4F834319A421ED0D4F8403162
:100A90009A421CD0D4F84C319A421AD00023636099
:100AA000A3E7102032F06EFEAAE7032000EB40001F
:100AB000002104EB8003D162C3E93E11EEE701207F
:100AC000F4E70220F2E70420F0E70520EEE7062035
:100AD000ECE70720EAE700BFC8260120000000205D
:100AE00070B51C4E632200211B4D96F85C0148F046
:100AF00045FFB6F88031194E0446333B09220021E8
:100B000086FB0360DB17C3EB201048F037FF64213E
:100B1000AA68C0F1090301FB0340910784B202D522
:100B200004F57A74A4B2D20702D504F5FA64A4B22B
:100B30002B685B0701D4204670BD152032F022FEE1
:100B40000028F8D06B6813F4016FF4D104F57A64CF
:100B5000A4B2F0E7C8260120000000201F85EB5159
:100B6000F8B5224C94F88C11621892F89021002A62
:100B70003AD000231E4D4A1C0133A5FB02614908EF
:100B800001EBC101511A621892F890210AB1092BA8
:100B9000F1D1CBB284F88C3102680C260025571CA9
:100BA000076001EB41071670026801EB8701561CD4
:100BB000066015700D2205680E4E6F1C31440760EB
:100BC0002B704CF0A9FC94F88C110120084B0A18EA
:100BD0002144A3FB025381F89001C34003EBC303FC
:100BE000D31A84F88C31F8BD0B46D5E7C82601200E
:100BF000398EE338642801202DE9F047754C82B026
:100C0000E56900AFD5E900535B1B002B40F3A080E2
:100C1000002384F82432704D4FF0000CA5F114022B
:100C200005F1800305F5C07E25611646C4F814520F
:100C3000C4F81852C4F81CE0C4E90532C4E9EA3328
:100C4000421800F10109C4E9029203785909012907
:100C500040F0868003F00F0813F0100311D1BCF1AF
:100C6000000F00F0968094F8B913013101F00F01E4
:100C700041457ED01846083784F82432BD46BDE889
:100C8000F087821CC31C25694FF0000CA2604278DB
:100C9000A3608078AB1835604240736084F82412FA
:100CA00084F8B8233081A6F80CC0D4E90292A2EBF4
:100CB0000902A3EB050AD5B25FFA8AFAEB1DAA4531
:100CC00003F4FC73ADEB030D68D252464946684607
:100CD0005DF056FD09EB0A03524630466946A360B3
:100CE0004CF01AFC2369306894F8B8238342C6E9B3
:100CF000003009D001333360984213F8011C82EAB6
:100D00000102F7D184F8B823A3681B78934233D14A
:100D10002169002370603A1D3160E16960690B81CF
:100D200048608B81A06984F824327B6035F0B0F98B
:100D3000013047D07B680BB100209847E369012060
:100D4000616908371A68C3E90012BD46BDE8F0873B
:100D500094F824C2BCF1000F3FF45DAFA6696FE7C1
:100D600000210846FFF7B6FC01200837BD46BDE864
:100D7000F087D6E900539AE70023B6F9081001205E
:100D800084F82432FFF7A6FC01200837BD46BDE8F1
:100D9000F08760460837BD46BDE8F0872A464946D9
:100DA00068465DF0EDFC09EB050330462A466946CE
:100DB000A3604CF0B1FB0020083784F8B983BD462E
:100DC000BDE8F087E26902211368581C10601970B1
:100DD000B0E700BFC8260120F02801202DE9F04F20
:100DE000324D83B0324C1F46B5F9BA13B5F8C0C3C3
:100DF00084FB0164C9171646B5F8BCA3C1EBA40176
:100E00008CB2A44518D1D5F8C8234FF0000CD5F802
:100E1000CC13B6EB0208DFF89CB0B5F8D02363EB37
:100E20000109CC4508BFC34534BF01230023524507
:100E300018BF43F00103A3B30368342100220190DB
:100E400003F1010CC0F800C019702146036803F1DA
:100E5000010CC0F800C01A704CF08CFB5146019890
:100E60004CF088FB47F6FF7101984CF083FB47F686
:100E7000FF7101984CF07EFB47F6FF7101984CF032
:100E800079FB47F6FF7101984CF074FB0198022141
:100E9000FFF788FD0123A5F8C043A5F8D0A3C5E955
:100EA000F267184603B0BDE8F08F00BFC8260120E6
:100EB0006766666680841E00604AD3682DE9F0414B
:100EC000054613F0800000F09B80906810F002004F
:100ED00000F09680DFF874E19EF85C11052940F27D
:100EE0009380632900F28E80002089B2544F064619
:100EF000A7FB013CC3B20C4601304FEADC0C9A0060
:100F0000092C0CEB8C03A1EB43031FFA8CF19BB271
:100F100003FA02F346EA0306EAD8F6B2DEF86831CD
:100F2000484AD91782FB0323C1EB633399B20029E6
:100F300000F082800024DFF808C12046ACFB0138B5
:100F4000E3B20F4601344FEAD8089A00092F08EBA4
:100F50008803A1EB43031FFA88F19BB203FA02F363
:100F600040EA0300EAD8C4B24FF4F362BEF8783125
:100F7000354942F20F7713FB02F381FB0312D917B5
:100F8000C1EBA21189B2B94241D8D1B10020DFF83A
:100F9000B0E00746AEFB0138C3B28C4601304FEAE1
:100FA000D8089A00BCF1090F08EB8803A1EB4303B2
:100FB0001FFA88F19BB203FA02F347EA0307E9D864
:100FC000B9B22B68172000225F1C2F6018702846CA
:100FD0002B685F1C2F601A704CF0CCFA4FF0FF3179
:100FE00028464CF0B1FA2B68284606215A1C2A6084
:100FF0001E702B685A1C2A601C70FFF7D3FC01205E
:10100000BDE8F081992689E70020BDE8F081002045
:10101000DFF82CC00146ACFB0732D20802EB82039A
:10102000A7EB430397B29BB283400430102841EAF8
:101030000301F0D189B2C4E70C4695E70000002017
:10104000CDCCCCCC89B5F814D34D6210C826012084
:10105000C64AD3682DE9F04F814613F0800083B073
:1010600000F07781906810F0020000F07281DFF8E4
:101070001CA39AF85C31052B40F27281DAF86031DA
:10108000BB4C002B0093BB48B8BF5B42BA49A4FBE2
:101090000352920D00FB023302EB8202C3EB0313F7
:1010A00002EB82029B0084FB0354DD17C5EBA455C1
:1010B00000FB053305EB820581FB0321ADB2DB1795
:1010C000C3EBA111C5B10020AC4F0446A7FB053C02
:1010D000C3B22E4601304FEADC0C9A00092E0CEB0D
:1010E0008C03A5EB43031FFA8CF59BB203FA02F3C2
:1010F00044EA0304EAD8250489B2C1B100209F4F15
:101100000446A7FB013CC3B20E4601304FEADC0C9B
:101110009A00092E0CEB8C03A1EB43031FFA8CF110
:101120009BB203FA02F344EA0304EAD82543DAF84F
:1011300064B18F4C8BEAEB738E488F4AA3EBEB7351
:10114000A4FB0361890D00FB013301EB8101C3EBBB
:10115000031301EB81019B0084FB0364DE17C6EBE4
:10116000A45600FB063306EB810682FB0312B6B2DF
:10117000DB17C3EBA212CEB10021804F0846A7FBBC
:10118000063ECBB2344601314FEADE0E4FEA830C05
:10119000092C0EEB8E03A6EB43031FFA8EF69BB2CF
:1011A00003FA0CF340EA0300E9D8060492B2CAB18C
:1011B0000021724F0846A7FB023ECBB21446013114
:1011C0004FEADE0E4FEA830C092C0EEB8E03A2EBE6
:1011D00043031FFA8EF29BB203FA0CF340EA0300BA
:1011E000E9D80643DAF86831644A002B18460193BF
:1011F000B8BF5842624C6349A2FB0030030AA4FB0B
:101200000343DB0901FB03F1C1EBD00189B2C1B19A
:10121000002496462746AEFB013CE3B20A46013461
:101220004FEADC0C9800092A0CEB8C03A1EB43037A
:101230001FFA8CF19BB203FA00F347EA0307EAD8DE
:10124000B9B2BAF87A81B8F1000F1AD00024DFF8E9
:101250002CE12746AEFB083CE3B2424601344FEA9C
:10126000DC0C9800092A0CEB8C03A8EB43031FFA53
:101270008CF89BB203FA00F347EA0307EAD81FFA97
:1012800087F8BAF880313D4AA2FB0307FF08632FB5
:1012900028BF6327092B67D94FF0000C92466046A0
:1012A000AAFB073E5FFA8CF33A460CF1010C4FEAB9
:1012B000DE0E9C00092A0EEB8E03A7EB43031FFAF8
:1012C0008EF79BB203FA04F340EA0300E8D8C4B2F5
:1012D000009B019A002BCCBF39233823BBF1000FB0
:1012E0004FEA226738DD27F07F07274A3B439345C3
:1012F00043F00207C8BF43F00607D9F800301620B4
:10130000002203F1010CC9F800C018704846D9F852
:10131000003003F1010CC9F800C01A704CF02AF932
:10132000294648464CF010F9314648464CF00CF935
:10133000484641464CF01EF9D9F8003001201A18F1
:10134000C9F800201C70D9F800301A18C9F800201C
:101350001F7003B0BDE8F08F27F07F071F43CCE775
:10136000002003B0BDE8F08F0024B1E700000020AA
:101370006BCA5F6B806967FFD34D6210CDCCCCCC5C
:10138000C55A7C0AA0860100FFC99A3BC8260120E5
:10139000036800224FF6FF7170B57E255E1C04467F
:1013A00006601D7003685D1C05601A704CF0BEF885
:1013B0000D4B93F8323083B126F0C8FD014620462C
:1013C0004CF0B4F8204647F6FF714CF0AFF82046D9
:1013D0000821FFF7E7FA012070BD26F0CDFD014698
:1013E00020464CF0A3F8EDE7C8260120154BDB683A
:1013F000C3F3022310B4C3F107041A1D042C28BF41
:101400000424062A4FF0FF328CBF033B0023A24086
:10141000002821EA020101FA03F108DB09010A4B65
:10142000C9B2034483F800135DF8044B704700F021
:101430000F000901054BC9B2034419765DF8044B4E
:10144000704700BF00ED00E000E100E0FCEC00E0D0
:1014500038B50D4B0D4A1B68A2FB03239B09013BCA
:10146000B3F1807F09D20A4AF0250A4C00200721F7
:10147000536084F823509060116000214FF0FF30DA
:10148000FFF7B4FF002038BD00000120D34D6210EB
:1014900010E000E000ED00E02E4A00232E4910B4D9
:1014A000C2F8EC334CF25034D2F8F00304E0D2F836
:1014B000F0331B1AA34210D8CB68DB03F7D4CC68F7
:1014C00014F0F2040DD1C86810F0010002D001231D
:1014D0002046CB605DF8044B704703205DF8044B59
:1014E0007047CB689B0705D5D2F8EC3343F0200357
:1014F000C2F8EC33184BDB68DC0605D5D2F8EC33C8
:1015000043F01003C2F8EC33134BDB68980605D5A3
:10151000D2F8EC3343F00803C2F8EC330E4BDB682F
:10152000590605D5D2F8EC3343F00403C2F8EC3386
:10153000094BDB681B0605D5D2F8EC3343F00203F8
:10154000C2F8EC33044BF22201205DF8044BDA6060
:10155000704700BFC8260120003C024070B40D4D0A
:101560000646046804E0D5F8F0339B1A0A2B06D827
:10157000A36931EA0303F6D1002070BC7047002351
:101580002022032086F8412086F8403086F8423039
:1015900070BC7047C826012070B41C4D0646046814
:1015A00004E0D5F8F023521A0A2A25D8A36913F0CB
:1015B0002003F6D010222023E261E361A3699A0799
:1015C00001D50023A362A369DB0710D56368042556
:1015D0000F4A20210120134000226360756486F8C1
:1015E000402086F8411086F8422070BC7047A369FD
:1015F00043F00103A361E9E72022032086F840308D
:1016000086F8412086F8423070BC7047C826012019
:1016100000E800FE70B5134E04460D460AE09B69D3
:10162000DB0602D5FFF7B8FFC8B9D6F8F0335B1B6D
:101630000A2B07D82368294620469A699207EED5D7
:10164000002070BD636C2021002203200B4384F82E
:101650004020636484F8411084F8422070BD01206A
:1016600070BD00BFC826012070B5134E04460D465C
:101670000AE09B69DB0602D5FFF78EFFC8B9D6F8F2
:10168000F0335B1B0A2B07D82368294620469A694A
:101690009206EED5002070BD636C2021002203204D
:1016A0000B4384F84020636484F8411084F842209E
:1016B00070BD012070BD00BFC826012000F01F02D0
:1016C00040090123032803FA02F304D0042807D0B9
:1016D00002280AD07047074A116C0B431364704705
:1016E000044A116B0B4313637047024A516C0B435E
:1016F00053647047003802402DE9F047041E0D4640
:1017000012DB092C26DC0B46814A82480021A0FB13
:1017100004605970C00800EB8000A4EB4000125C2C
:1017200028461A70BDE8F08764422D23092C01F881
:10173000013B24D8764A774B0020A3FB0463487012
:101740002846DB0803EB8303A4EB4303D35C0B7055
:10175000BDE8F0876F4B632CA3FB04264FEAD60647
:1017600021DC0B466A4A6B49A1FB0601C90801EB63
:101770008101A6EB4101515C03F8011BC5E7654AF5
:10178000632CA2FB04364FEAD60637D8604A614B79
:10179000A3FB0603DB0803EB8303A6EB4303D35C45
:1017A00001F8013BC7E7A3FB0627B4F57A7F4FEAB0
:1017B000D7070DD20B46564A5649A1FB0701C90867
:1017C00001EB8101A7EB4101515C03F8011BCAE762
:1017D000A3FB072842F20F7294424FEAD80836D88A
:1017E0000B464B4A4B49A1FB0801C90801EB81019B
:1017F000A8EB4101515C03F8011BDDE7A2FB0637B2
:10180000B4F57A7F4FEAD7070CD2414A414BA3FB8C
:101810000703DB0803EB8303A7EB4303D35C01F867
:10182000013BB4E7A2FB073942F20F739C424FEA37
:10183000D90921D8364A374BA3FB0903DB0803EB50
:101840008303A9EB4303D35C01F8013BDEE7A3FB71
:101850000829314A94424FEAD90921D80B462C4A2B
:101860002C49A1FB0901C90801EB8101A9EB410148
:10187000515C03F8011BB5E7A2FB093A264B9C42D9
:101880004FEADA0A21D8224A224BA3FB0A03DB08DB
:1018900003EB8303AAEB4303D35C01F8013BCAE7E4
:1018A000A3FB09231D4A94424FEAD30A21D80B46D1
:1018B0001849174AA1FB0A01C90801EB8101AAEBEB
:1018C0004101515C03F8011BCAE7A2FB0A38134B24
:1018D0009C424FEAD80813D80E4B0D4AA3FB0803CD
:1018E000DB0803EB8303A8EB4303D35C01F8013B64
:1018F000CAE70A22BAFBF2F04BF064FB0346D7E7D3
:101900000A22B8FBF2F04BF05DFB0146E4E700BFB2
:1019100000630708CDCCCCCC9F8601003F420F006E
:101920002DE9F0471D4688B0531C0F4603931178EC
:10193000002900F0D28000240646A0460BE0701C6F
:1019400001D03046B8470134039A531C03931178F1
:10195000002900F0C3802529F1D1931CCDE903387B
:1019600050782D2800F0AF804FF0000A302800F0AA
:101970009180A0F130034FF00009DBB2092B40F257
:1019800096806C2835D0782800F2F480572827D923
:10199000A0F15803202B00F2ED80DFE813F00501E1
:1019A000EB00EB00EB00EB00EB00EB00EB00EB00DF
:1019B000EB00EB00DD00ED00EB00C400EB00EB0002
:1019C000EB00EB00EB00EB00EB00E600EB00EB00C4
:1019D000EB00EB00B600EB00A300EB00EB00050111
:1019E00000287BD0252840F0C580731CABD0252172
:1019F000A7E7039B5A1C039219787829A5D8572981
:101A000067D9A1F15803202B9FD801A050F823F0EB
:101A1000851B01084B1901084B1901084B190108D6
:101A20004B1901084B1901084B1901084B19010802
:101A30004B1901084B1901084B190108591B0108E2
:101A40009D1B01084B190108271B01084B190108B0
:101A50004B1901084B1901084B1901084B190108D2
:101A60004B1901084B1901086D1B01084B1901089E
:101A70004B1901084B1901084B1901080B1B0108F0
:101A80004B190108E51A01084B1901084B19010807
:101A9000851B0108039B4FF0010903EB0902039228
:101AA0001878A0F13003DBB2092B3FF66AAF04AA25
:101AB00003A9FEF7E3FABAF1000F3FF462AF049B0B
:101AC0005B4204935DE7D31C4FF0010A03939078C7
:101AD0004CE719B1252988D037E70C46204608B0D5
:101AE000BDE8F08705A955F8040BFEF789FA05ABA8
:101AF0003A464FF0FF3130460193CDF80090049BF9
:101B00004BF0FAFD039A04441FE755F804CB3A461C
:101B1000049B4FF0FF313046CDE9008C4BF0ECFDDB
:101B2000039A044411E7073525F00705F5E802019B
:101B300056F018FF00EE100A05A84BF0D1F905ABDE
:101B40003A464FF0FF313046CDE90093049B4BF00D
:101B5000D3FD039A0444F8E6721C3FF4F4AE55F842
:101B6000041B3046C9B2B847EDE6039A55F8043B6A
:101B70001C60EAE6039AE8E605A955F8040B4BF069
:101B800039FAB4E7A1F1580205AB102155F8040B5E
:101B9000B2FA82F252094BF073FAA8E705A955F898
:101BA000040B4BF027FAA2E7A0F1580205AB102175
:101BB00055F8040BB2FA82F252094BF061FA96E73B
:101BC0002DE9F84F064640689146A94F028A88469B
:101BD000D6F80CB002F00F01C2F30212DBF80430A9
:101BE00057F8224007EB810114F5803FD1F820A07F
:101BF00000F09D803A19B4F1000C9E4992F84050D3
:101C000018BF4FF0010C591A5A5918BF012122F080
:101C100001025A5100297BD1BCF1000F78D1964ABC
:101C200000214FF0210C116051609160D160116171
:101C3000C2F814C05A5922F0F0525A513F229A6009
:101C40004379032B00F2BA81DFE803F05F5C5902AD
:101C50000568403558463C4453F0C0FE0A23ABF8B3
:101C60001C30D6F80CB0584653F0B8FE834B032115
:101C70009BF91400CBF80C30CBF81860FFF7B6FBDB
:101C80009BF9140056F054F9F26894F84030526809
:101C90007B48D458D11820407A4C04437A48D45019
:101CA0004C6944F0070C7468C1F814C052F803C0C2
:101CB0002CF0C07C42F803C052F803C02CF4C00CD6
:101CC00042F803C0C1F80C808D604D68284040EA9E
:101CD00009004860D15821F0F05141EA0A01D15081
:101CE000A379326813F0040F637950681F4497F8A2
:101CF000481017D055F08EF80120BDE8F88F056820
:101D00003C35A7E705683835A4E705683435A1E711
:101D10005E4A9A1A18BF0122BCF1000F17D1B2B95E
:101D20005B4A7DE755F08CF80120BDE8F88F514AF9
:101D3000934228D0554A934282D1564B1A6942F4B5
:101D400080021A611A6922F480021A6178E7B4F1FC
:101D5000010C18BF4FF0010CF9B9BCF1000F1CD1F8
:101D60004D4A00214FF0210C116051609160D1600B
:101D70001161C2F814C05A5922F0F0525A514FF46E
:101D800074629A605CE7434B1A6942F400121A616C
:101D90001A6922F400121A6152E722B9BCF1000F4D
:101DA00001D13E4ADDE7B4F1020C18BF4FF0010C3F
:101DB000A9B9BCF1000F12D1394A00214FF0210C12
:101DC000116051609160D1601161C2F814C05A591C
:101DD00022F0F0525A514FF47C129A6030E722B947
:101DE000BCF1000F01D12F4AE7E7B4F1030C18BF93
:101DF0004FF0010CA9B9BCF1000F12D12A4A002101
:101E00004FF0210C116051609160D1601161C2F8F6
:101E100014C05A5922F0F0525A514FF074629A602D
:101E20000EE722B9BCF1000F01D1204AE7E7B4F177
:101E3000040C18BF4FF0010CA1B9BCF1000F11D177
:101E40001B4A00214FF0210C116051609160D1605C
:101E50001161C2F814C05A5922F0F0525A513F226F
:101E6000DA60EDE642BBBCF1000F25D1114AE8E78C
:101E7000D8EE0608006002401060024079FA0508BA
:101E80001F80FCFF405402000000FFFF006402407E
:101E9000106402400038024028600240286402407A
:101EA0004060024040640240586002405864024072
:101EB0007060024070640240B4F1050C18BF4FF02E
:101EC000010CA9B9BCF1000F12D13D4A00214FF01D
:101ED000210C116051609160D1601161C2F814C091
:101EE0005A5922F0F0525A514FF47462DA60A7E660
:101EF00022B9BCF1000F01D1324AE7E7B4F1060C78
:101F000018BF4FF0010CA9B9BCF1000F12D12E4A35
:101F100000214FF0210C116051609160D16011617E
:101F2000C2F814C05A5922F0F0525A514FF47C12A0
:101F3000DA6085E622B9BCF1000F01D1234AE7E758
:101F4000234A934214D1072C12D1224A00214FF088
:101F5000210C116051609160D1601161C2F814C010
:101F60005A5922F0F0525A514FF07462DA6067E623
:101F7000194A00214FF0210C116051609160D1602D
:101F80001161C2F814C05A5922F0F0525A51002C73
:101F90003FF454AE012C3FF4F2AE022C3FF41BAFE1
:101FA000032C3FF43AAF042C3FF459AF052C9BD0DF
:101FB000062CBBD0072C7FF443AED5E7002549E6BD
:101FC0008860024088640240A0600240A064024031
:101FD00000600240B8600240B8640240014B5860A3
:101FE000704700BF50280040014B5868704700BF41
:101FF000502800400E48D0F80C3610B5A3B190F828
:10200000044400F57D70D3F8042234B10024402349
:10201000012151F07BFA204610BD4FF400730121DD
:1020200051F074FA204610BD0224204610BD00BFB6
:10203000C82601202DE9F047BF4B0321BF4C4FF0CC
:10204000A04088B0402584F8E1191A6BC4F828062E
:10205000042042F00102C4F82C0604F57D701A63D6
:102060001A6B04F5C563C4F8240A4FF4C05002F09B
:102070000102C4F824360223C4F83C56029200251B
:102080000A220691029903A9C4F84036C4F83436EE
:10209000C4F85856C4F83856C4F84856C4F84456DC
:1020A000C4F85456C4F84C5605950792CDE903037D
:1020B000A34855F00BFCD4F85436012B00F0948162
:1020C0009D4B062143205A6B42F080025A635A6BA3
:1020D00002F080020092009A5A6C42F480425A64E4
:1020E0005B6C03F480430193019BFFF77FF9D4F805
:1020F00028560822934B9A60AB68D4F8402623F008
:102100000103D4F83866012AAB6040F03981AA6B2C
:102110008D4B22F48032D4F85C16AA630129EA6858
:1021200003EA0203EB60EB6823F44013EB6000F07A
:102130005681284654F054FE012E07D1AB6843F077
:102140000603AB60AB6843F02003AB60D4F82836DD
:1021500032200125DA6822F0C042DA60DA6842F003
:102160008042DA6055F0F2FE784A002113460846B4
:1021700083F83810D987013183F839500F2983F853
:102180003B00D864C3E9100003F11C03F0D1002127
:10219000D4F82836084682F8F81101F14005D187B5
:1021A000013103EB850582F8F9010F2982F8FB0163
:1021B000C2F80C02C2E9800002F11C026860EAD198
:1021C0009A6BD4F8546642F40012D4F82C56D4F822
:1021D00034E6D4F838C6D4F84016D4F844769A6376
:1021E0005EB99A6B22F400129A631A6842F04002B8
:1021F0001A601A6842F080021A600020012903F573
:102200000062C3F8000ED3F80008C3F8000800F01D
:10221000D1800329D3F8001838D041F00301C3F866
:1022200000184FF484604A49186101E0013902D076
:1022300018698006FAD410204549186101E0013977
:1022400002D01869C006FAD400214FF0FF301161A6
:1022500051619061D1610DB303F510604FF0904A68
:102260004FF0FF098E4609E0C0F800E00131C0F8E8
:1022700010E0C0F808902030A94253D0D0F8008078
:10228000B8F1000FF0DAC0F800A0EFE7BEF1000FE0
:10229000C5D041F00101C3F80018C2E71169BCF1D3
:1022A000010F21F48071116175D000206FF0804121
:1022B00098615961BCF1000F03D1996941F0100197
:1022C000996198692349014399611FB1996941F066
:1022D00008019961012E03D198691F490143996151
:1022E0000120D4F84C16814284F8E10969D0536882
:1022F000032043F00203536055F028FED4F828363B
:10230000802200205A625A6A42F480029A625A6A13
:10231000996A02EB114242F40002C3F8042108B0AA
:10232000BDE8F087002003F530614FF0904A4FF090
:10233000FF0986461CE000BF00380240C826012085
:102340000000024000E100E0BFFFBDFFF02C0120D3
:10235000400D030000383C8004000040C1F800E05C
:102360000130C1F810E0C1F808902031A84295D0A2
:10237000D1F80080B8F1000FF0DAC1F800A0EFE763
:10238000EB68284643F04003EB6054F029FD4FF41E
:102390008033AB63D0E619480025194910636FF00C
:1023A0008040D2F830C04CEA01011163116B9D618D
:1023B000586186E7D3F80018BEF1000F7FF469AFCB
:1023C0002DE70020C4F81C1A0E4984F8140A9869F5
:1023D00040F000609861586D0143596587E7EB68EC
:1023E00043F48013EB60A4E64FF4007303A906489E
:1023F0000393CDE9045555F069FA61E600018000C8
:10240000030001000300001000000240037870B4D4
:1024100033B30246C0F10105531912F8014FDBB284
:10242000002CF9D101335B00DAB20F4C03250B808D
:1024300084F8282A84F8295A017879B102230026E1
:102440005A1CE518023354FA82F285F8281ADBB2D6
:1024500082F8286A10F8011F0029F1D170BC70477A
:1024600002221346E1E700BFC826012030B5082448
:1024700083B00A4D012300220DF10701D5F87C0B32
:1024800049F016FC9DF80730FF2B04D0013CF1D138
:10249000204603B030BD012003B030BDC826012066
:1024A000F0B40F4BC40800F0070700221E5D03EBD9
:1024B000D005BE40F6B2C7F1080300278B4228BF03
:1024C0000B46C3F108049A40C91A46FA04F415F8F9
:1024D000016F42EA0402EED11046F0BC704700BF23
:1024E00030320120F0B5154E83B00D463378022B03
:1024F0000ED14FEA102CC4B2114F0023012201A9C2
:10250000386860444FF082F9012806D003B0F0BD6E
:10251000C0F3D41C00F07F04EEE73378022B019B5C
:1025200004D133F814302B6003B0F0BD53F82430DD
:1025300023F070432B6003B0F0BD00BFA466012000
:10254000A4780120D0E9011310B48B4290F91A202D
:1025500038BF0B46511C83600AD0184B02F58172BC
:10256000FF2103EB0212D3796FF30003D37181765D
:1025700090F91B305A1C14D003F581720F4901EBFE
:102580000213DB79C3F34503012B14D9013B03F09C
:102590003F0301EB0212FF24D17963F34601D171AD
:1025A000C4760022436A5DF8044B114642614260E2
:1025B00003614FF011B90023EBE700BFA4660120CF
:1025C0002DE9F043164685B0804608464AF0E0FE05
:1025D0004FF47A720546002389463C2456F040FBAE
:1025E000B6F900C00746494628464FF47A720023E0
:1025F0000CFB0477002556F033FB4FF47A7394B24A
:1026000001A8C3FB07452B4622464AF005FE404B76
:1026100093F8823B012B2FD0022B10D19DF806702E
:10262000FB1E082B0BD83B1F062B1BD93946BDF8C8
:1026300004004AF085FD032F36D00B2F41D02246EF
:102640002B4640464AF0E8FD05B0BDE8F083032F75
:1026500055D00A2FF3D19DF80870B7FA87F77F0994
:10266000002FECD02B4B0022E418338803F13C03FD
:1026700042EB05053380E2E79DF80670FB1E072B51
:10268000DDD83B1F052BEDD93946BDF804004AF0D3
:1026900057FD9DF807309842D9D0033F18BF012756
:1026A000002FDFD1CBE707380E28FCDC9DF8073080
:1026B000834212D0CCBF01270027002FD2D1BEE722
:1026C00007380728FCDC9DF8073083420ED0B4BFE2
:1026D00001270027002FC5D1B1E79DF80870012F11
:1026E00094BF00270127002FBCD1A8E79DF80870F0
:1026F000012F8CBF00270127002FB3D19FE79DF842
:102700000870003F18BF0127002FABD197E700BF2B
:10271000C826012080EE3600002170B5012408464D
:1027200047F07CFB002120464FF4067647F076FB0D
:102730000E4B0F4D012118461BB1DE801C7247F075
:1027400037F9032C08D055F82430012101341846FC
:10275000002BF2D1032CF6D10021084647F05EFB96
:1027600000210120BDE8704047F058BB70320120C5
:1027700024EF06086428034BB8BF6420C3F8BC03E9
:10278000704700BF00000120034B64281B69B8BFDD
:102790006420D860704700BF000000202DE9F0479A
:1027A00090B00E460746914601A83C2200219A4669
:1027B0001A9DDDE918485CF0DFF92E4B8DF80460B6
:1027C000CDF834800293002E4FD0B31E012B4ED98A
:1027D000042E14BF00220322DFF89C8001238DF811
:1027E0000520D8F8842F039414448DF83130CDE9B6
:1027F00005570494B9F1000F2CD198F88A3F0022B4
:10280000012B0E921BD898F889CF013301ACCCEB89
:102810000C1588F88A3FBCFA8CFC08EB85054FEA5A
:102820005C1C05F68C750FCC0FC50FCC0FC50FCCFB
:102830000FC594E8070085E8070088F889CF3B6852
:1028400083B153464A463146384610B0BDE8F0479A
:1028500029F098BE5246494607A85BF091FF8DF8D3
:1028600030A0CAE710B0BDE8F0870522B4E7022225
:10287000B2E700BF0C360120C82601200023036008
:10288000704700BFB4EEE00AF1EE10FA04D4F7EEA0
:10289000007A80FE670A7047B0EE600A704700BF9A
:1028A000074B4FF47871074853F8C42C43F8D40C05
:1028B000931E223223F8021F9342FBD1704700BFC0
:1028C000C0370120D1390308F0B523491120234C2A
:1028D0004FF478724FF478734FF4787541F60B2605
:1028E000002744F8D41C85B01D4904F8F00C4020A2
:1028F00044F8785C44F8D01C44E93A6744E92E2354
:1029000044E92C2344E92A2344E9282344E92623E3
:1029100044E9242344E9222344E920232AF09CFBB0
:10292000B8B114F86D2C0023032190F90400012A9A
:102930000C4A01914FF040010CBF08251D46009242
:102940000295094A2AF0C2FA44F84C0C003818BF24
:10295000012005B0F0BD00BF95450308C037012038
:102960008D460308A0680600F95703080023024AB1
:10297000036042608360704783F9223E0D4B70B460
:102980000D4CA34203D311E00C33A3420ED25A796B
:102990008242F9D1DA798A42F6D11A681E7915791C
:1029A000AE42F1D115689D42EED100E00022104602
:1029B00070BC7047000200083803000864281C4BF4
:1029C00028BF642000EB800070B54600A3FB0623FF
:1029D0005D095B0922D0002401349F2048F0F8FEF5
:1029E000E3B29D42F8D80A2D00D170BD1148C5EB65
:1029F00085136C1CA0FB0620C5EB83030009663819
:102A00001844C0B248F0E4FE092DEED001349A20FB
:102A100048F0DEFEE4B20A2CF8D170BD054801246E
:102A2000A0FB063000096638C0B248F0D1FEEDE7E1
:102A30001F85EB51CDCCCCCC2DE9F041DFF898804F
:102A4000002748F8487C002841D04FF00071044628
:102A500052F0F2FE0546002839D052F00BFF064630
:102A6000002834D04FF47A63A8F144022046A8F835
:102A7000183048F8482C46F0E7FF2A7A022146F041
:102A8000BDFF144AB8F81840304658F8485CB2FB0D
:102A9000F4F42E60A1B252F00FFEC4F34F01286887
:102AA00052F08EFC286854F0EFF92B6802220120C6
:102AB0001B685B68196883F83D200A6802430A6056
:102AC00083F83D00286852F065FCA8600760BDE807
:102AD000F08100BF40420F00C0370120F0B4194F11
:102AE000397F07292BD80C224B1C02FB0171DBB26A
:102AF000243151F8042CD4070DD502420BD091F9A2
:102B000000600022104C94F900500C34B5420CD0F7
:102B10000132082AF7D101330C31DBB2092BE8D19D
:102B2000082300203B77F0BC704702EB42020749C4
:102B30003B7701EB8202F0BCD2F8F800704700202E
:102B4000F1E700BFC0370120BC270120C8260120C3
:102B50000144884219D030B4441E4D1E002041F279
:102B6000210114F8012F082380EA022010F4004FFD
:102B70004FEA400281EA40000CBF90B280B2013BB4
:102B8000F4D1AC42EDD130BC70470020704700BF9B
:102B9000344870B490F88430A3F13001092957D833
:102BA00000F184049330224612F8015FA5F1300150
:102BB000092904D88242F7D1002070BC7047141B49
:102BC000022C4BDD2848002101E010F8013B01EB0D
:102BD0008101161A044603EB4103022EA3F13003D0
:102BE00003F0FF01F1DC214B03FB01F1A2424FF0A6
:102BF00000030ED903EB830314F8016B5B00A242C0
:102C0000A3F13003334403F0FF03F3D1184800FB72
:102C100003F32E2D06D01748A0FB032370BC01EB55
:102C20009300704701320425002404EB84041078DB
:102C3000013D303864000928A4B2204401D8013293
:102C400084B215F0FF05F0D1642202FB0433E2E701
:102C500000211D4600F184020B46DAE70021064CF4
:102C6000C4E700BFC0370120453801208096980096
:102C700040420F00ABAAAAAA443801209B1A00FBCD
:102C800003F393FBF1F18818704700BF084BD3E9B9
:102C90002502D3F89C30824202DB114602460846E8
:102CA000984204DD9A42B8BF1A46104670477047F2
:102CB000C0370120124A30B4D2E92803D2E92A41B0
:102CC0008342D2F8B02002DB1D46034628468A42E2
:102CD00002DB15460A4629468842A8BF08469342A9
:102CE000B8BF1346A04202DC224604461046834287
:102CF00003DAA342B8BF2346184630BC704700BF72
:102D0000C03701200B6810B414681B1B03605468A3
:102D10004B681B1B5DF8044B43608B6892689B1AE1
:102D2000836070472DE9F043DFF8A49087B04FF03F
:102D3000000C884609F106044E4609F160034F462F
:102D4000A0EB0C0294F800E0002AA0EB0E05B8BF3F
:102D50005242002DB8BF6D42954202DA4FFA8EFC06
:102D600027460634A342EBD109F15A017B880022A1
:102D700003E0B14217D016F8062F62451C46F8D181
:102D8000A8EB0302B6F802E0002AA8EB0E05B8BFD4
:102D90005242002DB8BF6D42AA42EADDB1427346ED
:102DA00037467446E7D17A7903463D790321029488
:102DB0000120CDF8008004923A7803950192034AED
:102DC0004BF070FB384607B0BDE8F0832863070876
:102DD00030EF060830B5046885B0E4692CB10DF118
:102DE0000F050095A04705B030BD204605B030BDA9
:102DF00038B52321094C0A4DD5F8C00049F00EFC26
:102E000014F8011F0029F7D1064849F041FC95F854
:102E1000C43013B1012385F8C53038BD6463070899
:102E2000C0370120706307082DE9F04F9946D3435E
:102E300089B006466FEA090BDB0F002505924FEAC1
:102E4000DB7B07910693059BAB4207D0069B2BB11A
:102E50000135042DF7D109B0BDE8F08FEE23244AE7
:102E60000799002403FB05F3224F01EB030802EB53
:102E7000030AA1452B463A46304602D0BBF1000F6B
:102E800031D13AF814C038F814100CF01F0E1CF4AD
:102E9000006FA1EB0C01CCF3441CCDF804E018BF8B
:102EA0004FF0560EB1FA81F108BF4FF0480E009472
:102EB0004909CDE902CE049143F0C0FA38F8143044
:102EC000049913F4006FC3F3441203F01F0C009431
:102ED00014BF562048202B4603903046CDE901C24E
:102EE0003A4643F0C5FA0134772CC2D1B0E700BFAF
:102EF0008838012080630708404B414A2DE9F04F94
:102F000093F8C06D89463F4D8BB0DFF800B1804625
:102F1000002E08BF2A464D46002693F9C11D3A48A7
:102F200003F5026442F028F9B9F1000F47D02F7879
:102F30002378D5F804C0BB4243D0D5E902E0002194
:102F400095F816A033465A460991CDF81CA0B5F95C
:102F500014A0CDF818A0B5F912A0CDF814A0B5F9B9
:102F600010A00097CDE9030ACDE901CE404643F019
:102F700065FA0999A07D3346B4F914A00136B4F975
:102F800012E05A46B4F910C01835E7680790404679
:102F9000CDF818A0D4F808A0CDF814E0D4F804E0D7
:102FA000CDF810C014F818CBCDE902A7CDE900CEBA
:102FB00043F05EFA3C2EB7D10BB0BDE8F08F494626
:102FC000D8E76368D5F808E0634501D0E868B6E75C
:102FD000A368E8687345B2D1E3688342AFD1226940
:102FE0002B699A42ABD162696B6922F07F4223F070
:102FF0007F439A42A3D10121A2E700BFC03701203D
:10300000F06807089C630708A0630708B063070817
:1030100070B51F4E04460D4696F8AC372DED028B69
:103020007BB3D6F8B42706F59063D6F8B81793EDBE
:10303000CC8A0260D6F8BC27C0E90112DFED158A00
:1030400095ED000A80EE280A58F056FB236895EDAE
:10305000010A184428EE288A206080EE080A58F0F9
:103060004BFB636895ED020A1844606058F044FB1E
:10307000A368024696F8AC071344BDEC028BA3602C
:1030800070BDB7EE008A8360C0E90033D6E700BFA9
:10309000C03701202C7D8E3FF0B4224C94F8AC5701
:1030A00035B900230360436083602846F0BC704755
:1030B0000B6804F59066D4F8B477012AD6EDCC7A83
:1030C000A3EB0703D4F8B8679FED176A07EE103A31
:1030D0004B6867EE866AA3EB0603B8EEC77A07EE85
:1030E000903A27EE067AF8EEE77A80ED007A67EEFE
:1030F000A67AC0ED017A0CD0D4F8BC278B689B1A55
:1031000007EE903AF8EEE77AC0ED027A2846F0BC76
:103110007047D1ED027AF8EEE77AC0ED027A2846E0
:10312000F0BC7047C03701202C7D8E3F1A4A2DE934
:10313000F0035469194D002CD5F8B03303600DDD50
:103140001832002305F56C7601E09C4206D052F857
:10315000041B0133B142F8D1012200E00022D5F86E
:10316000BC330271836095F8C0334371D5F8D8132E
:10317000D5E9F832D5E9FA675B09540943EAC26335
:10318000D5E9FC89C0E90467C0E90834C0E90689CB
:103190008162BDE8F00370470000002000000120BC
:1031A0000C46054608B529F067FE204629F064FE66
:1031B0000021084646F032FE0021012046F02EFE96
:1031C000284646F087FBC0B9204646F083FB00281E
:1031D000F6D00121002046F021FE204646F072FB89
:1031E0000146284646F09CFB0021084646F016FEA4
:1031F000284646F06FFB0028E6D00121002046F06B
:103200000DFE284646F05EFB0146204646F088FB50
:103210000021084646F002FED6E700BFF0B50022C6
:1032200089B0DFF898C004AF13460A604A603E4692
:103230008A60CA600A610268C2F3855040FA03F4EA
:103240003546E40704D513F80C4005F8014B2E462B
:103250000133062BF2D1174DC2F303240023C2F32E
:1032600005302C4405F1C80C33700DF1190694F8A3
:10327000C0408DF8184040FA03F43546E40704D501
:1032800013F80C4005F8014B2E460133062BF2D102
:103290000023C2F3834506AC0846337002F00F03E7
:1032A0000549C2F303120097CDE901454AF070F9D0
:1032B00009B0F0BDD8EE0608D063070890EF060805
:1032C000014B186B704700BF00000120014BD3F881
:1032D000C000704700000120014B986F704700BF8D
:1032E00000000120414A10B492F8A130D2F88010B9
:1032F000023BD2E92140062B74D8DFE803F05A5C88
:1033000060500655040064424942404280EAE0733E
:103310009FED376AA3EBE07307EE103A84EAE4739B
:10332000A3EBE473B8EEC77A06EE903A81EAE17354
:1033300027EE066AF8EEE66AA3EBE17307EE903A31
:10334000B4EEE66AF8EEE77AF1EE10FA04DDB4EED8
:10335000E76AF1EE10FA34DC9FED256A26EE866A04
:10336000B4EE467AF1EE10FA04D5B4EE676AF1EEE7
:1033700010FA2DDC9FED1E6A67EE867AB4EE677A4E
:10338000F1EE10FA2BD5F4EE676AF1EE10FA26D5BD
:103390000029CCBF042005205DF8044B70474B4248
:1033A000404221461C46B1E7634240420C46194662
:1033B000ACE74942AAE74B4261421C46A6E7644299
:1033C000A4E700285DF8044BCCBF00200120704723
:1033D000002C5DF8044BCCBF0220032070474FF057
:1033E000FF30D9E723460C4619468FE7000000203E
:1033F000ABAA2A3F30B5284C83B0DFED286A14F819
:10340000603CD4F8185E07EE903A14F85F3CF8EE92
:10341000E77A07EE103A94F8F43DB8EEC77A67EE13
:10342000A67A04EB4302013327EE267AB2F8F81DA0
:10343000FDEEE77AA2F8F80D401A03F00F0317EE3D
:10344000902AFDEEC77A284484F8F43D17EE901ACE
:10345000C4F8180E00098A4211DC114680B217EE3A
:10346000902A40F2FF35002300954AF0D7FD2A4606
:10347000002146F083FAA4F81C0E03B030BD80B2E0
:103480008142D4BF401A0020824202DB101A80B26F
:10349000E7E70020E5E700BFC037012014AE234175
:1034A0002DE9F047084C94F87D322DED048B82B065
:1034B000062B00F20884DFE813F055056C041804AD
:1034C0000900CC0012067A040000002094EDC77AAF
:1034D0000423D4EDC97AD4EDCB6A67EE072A27EE30
:1034E000A73A94EDCD7AD4EDCF7A66EEA63AD4ED34
:1034F000C61A27EE074A94EDC82A67EEA74AD4ED0C
:10350000D16AE1EEA12A94EDD37AA2EE023AD4ED8B
:10351000D57A26EEA65A94EDCA1A67EE075AD4ED6C
:10352000CC1A27EEA76A94EDCE2AE1EE013AD4ED4B
:10353000D76AA1EEA14A94EDD97AE2EE024AD4ED1F
:10354000DB7A66EEA66A94EDD01A27EE077AD4ED00
:10355000D21A67EEA77A94EDD42AA1EE015AE1EED1
:10356000A15A94EDD61AA2EE026AD4EDD81A94EDBF
:10357000DA2AE1EE016AA1EEA17AE2EE027AB1EE78
:10358000E22AF1EEC32AB1EEE33AF1EEC43A84ED59
:10359000A62AB1EEE44AC4EDA72AF1EEC54A84EDAD
:1035A000A83AB1EEE55AC4EDA93AF1EEC65A84ED57
:1035B000AA4AB1EEE66AC4EDAB4AF1EEC76A84ED01
:1035C000AC5AB1EEE77AC4EDAD5A84EDAE6AC4ED03
:1035D000AF6A84EDB07A94EDDD7AD4EDDF7A67EEF0
:1035E000075AD4EDE16A27EEA76A94EDE37AD4EDA9
:1035F000E57A66EEA66AD4EDDC4A27EE077A94ED0A
:10360000DE5A67EEA77AE4EEA45A94EDE04AA5EEFE
:10361000056AD4EDE24A94EDE45AE4EE046AA4EEBD
:10362000A47A84F87D32E5EE057AB1EEE55AF1EE42
:10363000C65AB1EEE66AF1EEC76A84EDB15AB1EE50
:10364000E77AC4EDB25A84EDB36AC4EDB46A84ED8E
:10365000B57A94F816240F2A00F36E8500231B4DCB
:1036600002F16D019FED1A7A1E46184605EB8101A5
:10367000D1ED007A38B951ED016AF4EEE67AF1EE57
:1036800010FA09DDD6B2B4EEE77A0120F1EE10FAB5
:1036900002D5B0EE677AD3B201320431102AE7D1F5
:1036A00004EB8302591C0F2B06F10106D2EDA67A1A
:1036B00007EE101A67EEA76AB8EEC77A66EEA77A29
:1036C00027EE277A00F0698104E000BFE4000020C3
:1036D0000000000004EB8301581C91EDA66A0A4625
:1036E000D1EDA76AF4EEC66AF1EE10FA40F1558109
:1036F00066EE065A05EE100A0F28B8EEC55A25EEFA
:10370000866AA5EE067A77EE867A00F0278592ED36
:10371000A86A991CB4EEE66AF1EE10FA40F13D8118
:1037200066EEA65A05EE101A0F29B8EEC55A65EED8
:10373000A66AA5EE267A77EEA67A00F01185D2ED7C
:10374000A96AD91CF4EEC66AF1EE10FA40F125819F
:1037500066EE065A05EE101A0F29B8EEC55A25EE88
:10376000866AA5EE067A77EE867A00F0FB8492ED03
:10377000AA6A191DB4EEE66AF1EE10FA40F10D8165
:1037800066EEA65A05EE101A0F29B8EEC55A65EE78
:10379000A66AA5EE267A77EEA67A00F0E584D2ED49
:1037A000AB6A591DF4EEC66AF1EE10FA40F1F580ED
:1037B00066EE065A05EE101A0F29B8EEC55A25EE28
:1037C000866AA5EE067A77EE867A00F0E68092EDBC
:1037D000AC6A991DB4EEE66AF1EE10FA40F1DD80B4
:1037E00066EEA65A05EE101A0F29B8EEC55A65EE18
:1037F000A66AA5EE267A77EEA67A00F0CE80D2ED04
:10380000AD6AD91DF4EEC66AF1EE10FA40F1C5803A
:1038100066EE065A05EE101A0F29B8EEC55A25EEC7
:10382000866AA5EE067A77EE867A00F0B68092ED8B
:10383000AE6A03F10801B4EEE66AF1EE10FA40F167
:10384000AC8066EEA65A05EE101A0F29B8EEC55ADE
:1038500065EEA66AA5EE267A77EEA67A00F09D8040
:10386000D2EDAF6A03F10901B4EEE66AF1EE10FAA7
:1038700040F3938066EE065A05EE101A0F29B8EE53
:10388000C55A25EE866AA6EE057A77EE867A00F0AE
:10389000848092EDB06A03F10A01F4EEC66AF1EE9B
:1038A00010FA7ADD66EEA65A05EE101A0F29B8EE68
:1038B000C55A65EEA66AA6EE857A77EEA67A6CD032
:1038C000D2EDB16A03F10B01B4EEE66AF1EE10FA43
:1038D00063DD66EE065A05EE101A0F29B8EEC55ADA
:1038E00025EE866AA6EE057A77EE867A55D092EDB9
:1038F000B26A03F10C01F4EEC66AF1EE10FA4CDD87
:1039000066EEA65A05EE101A0F29B8EEC55A65EEF6
:10391000A66AA6EE857A77EEA67A3ED0D2EDB36A95
:1039200003F10D01B4EEE66AF1EE10FA35DD66EE54
:10393000065A05EE101A0F29B8EEC55A25EE866A0A
:10394000A6EE057A77EE867A27D092EDB46A03F177
:103950000E01F4EEC66AF1EE10FA1EDD66EEA65A0E
:1039600005EE101A0F29B8EEC55A65EEA66AA6EE46
:10397000857A77EEA67A10D0D4EDB56AF4EEC66AF1
:10398000F1EE10FA09D566EE066AF2EE0E5A26EE50
:10399000866AA6EE257A77EE867AB34240F34B81AB
:1039A00004EB83005A1E90EDA66AD0EDA56AF4EEF2
:1039B000C66AF1EE10FA40F13E81591C66EE065AD5
:1039C000B24205EE101A25EE866AB8EEC55A77EEB9
:1039D000867AA5EE067A40F32E8190EDA46A991EB0
:1039E000B4EEE66AF1EE10FA40F1258166EEA65AD1
:1039F000B14265EEA66A05EE903AF8EEE55A77EE2A
:103A0000A67AA5EEA67A40F316810746D81ED7ED12
:103A1000A36AF4EEC66AF1EE10FA40F10C8126EECC
:103A2000065A05EE902AB042F8EEE55A25EE066AEF
:103A3000A5EE867A77EE867A40F3FD8097EDA26A4E
:103A40001A1FB4EEE66AF1EE10FA40F1F48026EEA9
:103A5000A65A05EE901AB242F8EEE55A65EE266ACD
:103A6000A5EEA67A77EEA67A40F3E580D7EDA16AB7
:103A7000591FF4EEC66AF1EE10FA40F1DC8026EE32
:103A8000065A05EE900AB142F8EEE55A25EE066AAE
:103A9000A5EE867A77EE867A40F3CD8097EDA06A20
:103AA000981FB4EEE66AF1EE10FA40F1C48026EEFB
:103AB000A65A05EE902AB042F8EEE55A65EE266A5F
:103AC000A5EEA67A77EEA67A40F3B580D7ED9F6A89
:103AD000DA1FF4EEC66AF1EE10FA40F1AC8026EE81
:103AE000065A05EE901AB242F8EEE55A25EE066A3D
:103AF000A5EE867A77EE867A40F39D8097ED9E6AF2
:103B0000A3F10801B4EEE66AF1EE10FA40F19380F9
:103B100026EEA65A05EE900AB142F8EEE55A65EE99
:103B2000266AA5EEA67A77EEA67A40F38480D7EDD2
:103B30009D6AA3F10900F4EEC66AF1EE10FA7AD597
:103B400026EE065A05EE902AB042F8EEE55A25EE2A
:103B5000066AA5EE867A77EE867A6CDD97ED9C6A2A
:103B6000A3F10A02B4EEE66AF1EE10FA63D526EE8E
:103B7000A65A05EE901AB242F8EEE55A65EE266AAC
:103B8000A5EEA67A77EEA67A55DDD7ED9B6AA3F16E
:103B90000B01F4EEC66AF1EE10FA4CD526EE065A89
:103BA00005EE900AB142F8EEE55A25EE066AA5EE5A
:103BB000867A77EE867A3EDD3846A3F10C0790EDE3
:103BC0009A6AB4EEE66AF1EE10FA34D526EEA65AF9
:103BD00005EE902AB742F8EEE55A65EE266AA5EEA4
:103BE000A67A77EEA67A26DDD0ED996A0D3BF4EE43
:103BF000C66AF1EE10FA1ED526EE065A05EE901AA8
:103C0000B342F8EEE55A25EE066AA5EE867A77EE1F
:103C1000867A10DD94EDA76AB4EEE66AF1EE10FA4A
:103C200009D526EEA66AF0EE085A66EE266AA6EEDA
:103C3000A57A77EEA67AF5EEC07AF1EE10FA40F3A7
:103C4000708287EE278AC24B94F87EA2D3ED007A69
:103C5000B7EE007A38EE478A28EE278AB4F81C04BB
:103C600054F056FB064618EE100A0F4654F072FB4D
:103C7000804689463046394642464B4654F048FE17
:103C800008B946464F463946304654F06BFE00EEC2
:103C9000100A0AEBCA0305EB830000F52D705BF0F8
:103CA000F7F894F87E22BCEEC00A94F87D3202F553
:103CB000C87204EB420210EE100AB2F8E410A2F847
:103CC000E400A2F8EA105A1CA24BA3FB0213D11A7B
:103CD00003EB51039B08C3EBC303D31A84F87D3273
:103CE00002B0BDEC048BBDE8F0879B4DD4EDA77A04
:103CF000B0EE006AD4EDA65AF6EE006A77EEA77A27
:103D0000B4F88012D4F894220139B0EE664AB0EECD
:103D1000677A1032D5EE867A05EBC1008F4BA5EE9F
:103D2000867A083867EEA67A27EE267AC4EDC77A37
:103D300084EDC67AD0ED036A0139D0ED027A02F142
:103D40000802D3ED705AA0F10800D3ED6F4A03F1D9
:103D5000080335EEE67A12ED036A37EEE45A77EEA1
:103D6000A47A76EEA56A52ED045AA6EE057AE5EE3F
:103D7000857AA5EEE67AE6EE267A27EE047A67EEF5
:103D8000847A83ED8E7AC3ED8D7AD3D194F87D3227
:103D900099E7714DD4F888222846B4F88C1254F073
:103DA00003F994F87D32013384F87D329EE794F86C
:103DB0007E2294F8F830694D9E1DC3F1200306EB76
:103DC000421213F0FC0FC3F38501DFB205EB82064C
:103DD00000F0BF81013106F110022B46080106EB0D
:103DE000011112ED026A103293EDD17A103352EDC7
:103DF000076A52ED057A26EE076AD3EDCC4A12ED3A
:103E0000087A8A4293EDCB5A66EEA46AD3EDCE5A75
:103E100027EE057A83ED6B6A67EEA57AC3ED6A6AD1
:103E200083ED697AC3ED6C7ADBD14D4BA0F11001C3
:103E3000A3F5C4720E440B44114417F003021BD0C7
:103E4000D6ED007A013A93ED007A67EE877AC1EDFC
:103E5000007A11D0D6ED017A012A93ED017A67EE4E
:103E6000877AC1ED017A07D0D6ED027A93ED027A16
:103E700067EE877AC1ED027A94F8F860002E85D05B
:103E8000CF3794F87E32B00805EB870C05EBC313EF
:103E9000ACF5C47C05EB870503F1180734D001307D
:103EA00007F1100305F110010CF110024FEA001E9A
:103EB00007EB001013ED046A103351ED047A103251
:103EC00053ED066A103126EE276A51ED067A13ED9E
:103ED000077A51ED075A66EEA76A53ED057A8342D9
:103EE00002ED086A27EE257A11ED056A42ED066AB1
:103EF00067EE867A02ED077A42ED057ADAD1AEF105
:103F000010031F441D449C4416F003033FF43EAFCE
:103F1000D7ED007A013B95ED007A67EE877ACCED1C
:103F2000007A3FF433AFD7ED017A012B95ED017A9A
:103F300067EE877ACCED017A3FF428AFD7ED027AAD
:103F400095ED027A67EE877ACCED027A1EE700BF24
:103F5000180400202549922498020020E400002043
:103F600020040020B4F88032804D5908D4F884220F
:103F700005EB8308DB084FEA810005EB810E00F0BA
:103F8000A0805E1C10300EF1100302F1100C0EEB3D
:103F9000061E404408F11007A5F5DA7657ED047ABD
:103FA000103396ED6D1A0CF1100C50ED041A10360A
:103FB00013ED086A71EE278A57ED032A31EE671A6E
:103FC00010ED032A36EE218A57ED013A71EEC61A3A
:103FD00013ED064A103753ED054A103057ED066AC7
:103FE00053ED075A50ED067A10ED057A35EE820A48
:103FF00096ED6B3A72EE655A96ED6A5A74EE270AA0
:1040000096ED6C6A77EEC47AC6ED698A35EE229A2F
:1040100036EE232A35EE625A73EE268A86ED6A9AC8
:1040200074EE872A86ED6C2A37EE647AC6ED6B8AC9
:1040300073EE666A43ED052A36EE636A03ED088A7D
:1040400003ED070A43ED060A73455CED074A1CEDD4
:10405000084A24EEC12A24EE653A65EE242AA5EE2C
:10406000042A61EE843AB0EE435AE1EE042AE5EE0A
:10407000A43AA1EEA45A07ED072A47ED082A40ED1D
:10408000073A00ED085A5CED055A1CED065A26EE7B
:10409000253A65EEE63A27EE854A65EE474AE6EEB2
:1040A000053AA6EE853AA7EE254AE7EEA54A07EDC2
:1040B000063A47ED053A00ED054A40ED064A7FF421
:1040C0006DAF89B228460191FBF7FEFF019940468A
:1040D000D4F88422FBF7F8FF94F87D32F3E594F8E6
:1040E0007E2202F5C87304EB4303B3F8E410B3F87F
:1040F000EA308B4206D0012384F81124A4F812146C
:1041000084F8103401321A4B0621A3FB020384F811
:104110007D1203F4FF7101EB5303D21A84F87E225F
:1041200047E694F87EA204EB4A03B3F80A3408EE9B
:10413000103AB8EE488A91E5D4EDA67A012600231C
:104140000C4D27EEA77A67EE277AB0EE677AFFF775
:10415000C1BA05F5DA7105F54F736EE60E231CE45E
:104160000D231AE40C2318E40B2316E49802002014
:10417000ABAAAAAAE4000020D9498B6813F4003046
:1041800030B440F0B08001F2145201F5A663D54C72
:10419000D3ED937AD2ED014A92ED024AD4F8D05E83
:1041A00067EEA42AD2ED033A92ED003A27EE842A74
:1041B00063EEA71AD3ED076A22EEA37AD4F8D41ED1
:1041C00063EE277A62EE835A8A7AA1EEA47A23EE0E
:1041D000276A5442E1EE845A05EE104AA3EEA16A22
:1041E000B8EEC55A36EE877AF2EE041AE7EEA45A14
:1041F000A2EE437AF0EE466A25EE215AE2EE446AD8
:10420000B0EE656AA7EEC47AA2EE236AF0EE477AB2
:10421000B0EE667AF4EEC57AA2EEE47AF1EE10FA28
:1042200007D406EE902AB8EEE65A25EE215A85FE0E
:10423000675A83ED075AF2EE045ACA7A95ED205A6E
:104240005442D3ED4D6A07EE904AE5EE066AF8EE69
:10425000E77A67EEA57AF4EEE76AF1EE10FA07D492
:1042600007EE902AF8EEE77A67EEA57AC7FEE67ABF
:10427000C3ED4D7A0A7BC8B95142F2EE046A07EEEB
:10428000901AF8EEE77A67EEA67AF4EEC77AF1EEC6
:1042900010FA07DC07EE902AF8EEE77A67EEA67AC6
:1042A000C7FEC77AC3ED937A30BC70475142D5ED53
:1042B0001F5AD3ED936AB2EE046A07EE901AE5EE48
:1042C000876AF8EEE77A67EE867AF4EEE76AF1EE4F
:1042D00010FAE7D407EE902AF8EEE77A67EE867ACE
:1042E000C7FEE67ADEE701F214529FED7F7A92ED87
:1042F000024AD2ED014A64EE047AE4EEA47AF4EEC6
:10430000C77AF1EE10FACFD8D1F82435754C9B0658
:1043100040F1C18004F56663D4F8D05E93ED056A80
:10432000B1F92815DFED713A07EE901A9FED707A1A
:10433000DFED706AF8EEE77A86FE666A86FE076A47
:1043400067EEA33AB1EE637AFDEEC77A17EE903AC4
:104350002033402B00F2A78011F5E16F0CDA9FEDBE
:10436000665ADFED665AF0EE476A37EE457AF4EEAC
:10437000E56AF1EE10FAF6DCDFED617AB4EEE77A89
:10438000F1EE10FA0CD59FED5C5ADFED5E5AF0EEBF
:10439000476A37EE057AF4EEE56AF1EE10FAF6D4E4
:1043A000DFED597AB4EEE77AF1EE10FA7EDDDFED5B
:1043B000577A37EEC77A67EE077ADFED556A9FEDD9
:1043C000555ADFED555AA7EEA65ADFED546A27EE8F
:1043D000273AE7EE855AE7EEA56AA3EE267ADFEDE7
:1043E0004A7A77EEE37AFDEEE76A16EE903A2033EA
:1043F000402B55D811F5617F0CDA9FED3F5ADFED68
:104400003F5AF0EE676A77EEC57AF4EEE56AF1EEB0
:1044100010FAF6DCDFED3A6AF4EEE67AF1EE10FA25
:104420000CD59FED355ADFED375AF0EE676A77EE1F
:10443000857AF4EEE56AF1EE10FAF6D4DFED326A31
:10444000F4EEE67AF1EE10FA3DDDDFED306A76EE5D
:10445000E77A67EEA76ADFED2E5ADFED2E3A9FED81
:104460002E5AE6EEA53ADFED2D5A27EEA63AA6EE35
:10447000A35AE6EE855AE3EE257AC7EE276A9FED4A
:10448000287ADFED285A284B26EE877AC7EE067A7F
:1044900067EEA57A84E6D4F8D05E95ED1E6A3FE714
:1044A000DFED227AE9E79FED217A98E7DFED207AC8
:1044B000B4EEE77AF1EE10FA7FF57DAFDFED107A1A
:1044C00037EEC77A77E7DFED1A6AF4EEE67AF1EEB7
:1044D00010FABED5DFED0A6A76EEE77AB9E700BFDB
:1044E00000000020C0370120CE8BD33E88C3E43AC1
:1044F000000096430080BB45DB0FC940E4CB16416A
:10450000DB0F49C0E4CB16C1DB0FC93FDB0F4940CD
:104510009A7C2E36FAAF4FB93587083CA4AA2ABE3A
:104520008F2A7544E12E654230050020000000000E
:10453000DB0FC9BF38B52DED0A8B70EE609AD0ED58
:1045400001AA0378F0EE408AB0EE607A044669EE84
:10455000AAAA0D46B0EE41AAF0EE61BAB0EE42CA88
:10456000B0EE629A002B61D101F00103D0ED0B7A1D
:10457000002B54D079EEE77AB0EE697A87EE8A0A9A
:10458000D4ED090A84ED0B7AF5EEC00AF1EE10FACB
:1045900054DCD4ED032A20EE220A94ED0ABA20EE70
:1045A000099A94ED050AB0EE4C1A3AEE8B8A68EE41
:1045B000808AF0EE6B0A38EE098A38EE288AB0EE6F
:1045C000480A49F03BFDD4ED027AF0EE4B6A94EDD7
:1045D000047A69EEA77A6B0730EE488A84ED0E9A6A
:1045E000C4ED0F8AEAEE276A84ED0CBA28EE078A3A
:1045F000C4ED0DAA84ED100AF0EE667AEAEE087AB0
:1046000008D5B0EECBBAB0EEE77AB4EECB7AF1EEE5
:1046100010FA01D5C4ED0A7ABDEC0A8B38BD77EEED
:10462000677AF1EE677A87EE8A0AA9E711F001034B
:104630004FF0000240FEA97A027099E794ED038AD8
:10464000B0EE4A1A04F118005AF03AFC28EE000ABB
:10465000A3E700BF064B93F8911403F25C7203F2D8
:104660004473002918BF134693ED020A704700BF38
:10467000C03701202DE9F04F2DED028B87B0354D6D
:104680000446B0EE408A03901046D5F8D89E0E46F8
:1046900017469B4653F0F2FC0146D9F800C04FF094
:1046A0000008214489F80B6048463B4689F80A1007
:1046B00032462146CDF80080DCF814409DF848A031
:1046C0009DF84C90A0479FED240A5346424604A80B
:1046D00028EE000ACDF804B0CDF80080FDEEC07AD7
:1046E00017EE901A0FF0AAFFD5F8DC3E13B11B7835
:1046F0004B452BD0D5F8E83E13B11B784B4525D060
:10470000D5F8F43E13B11B784B451FD0D5F8003FC8
:10471000D3B11B78A3EB0909B9FA89F94FEA591902
:10472000384653F0ABFC039C04AB32460134CDF861
:1047300000902118D5F8D80EC9B245F05DFF07B03A
:10474000BDEC028BBDE8F08F9946E9E74FF0010917
:10475000E6E700BFC03701200000C84230B41C7833
:1047600084B1012C0CD1B3F902408AB1157B94FBC2
:10477000F5F40470B3F90430527B93FBF2F30B7041
:1047800030BC70479A780270DB7830BC0B70704791
:10479000054AE51782FB04241222C5EB6404047069
:1047A000B3F90430E9E700BFABAAAA2A30B41C78F9
:1047B0004CB1012C05D1B3F90220B3F904300260E9
:1047C0000B6030BC70479C7852B1157BDB7815FBD1
:1047D00004F40460527B03FB02F330BC0B607047AF
:1047E00004EB4404DB781222A4000460F3E700BF6A
:1047F00030B50C4683B0054601920EF03BFA019BA2
:104800002246294645F0B2FF0B4991F90C3F5A1C4C
:1048100001EB430352B283F8105F83F8114F352A3E
:1048200005DD0023012081F80C3F03B030BD0120DD
:1048300081F80C2F03B030BDC037012041F2C40312
:10484000104A30B5D45C83B00346012C10D9042241
:104850000D888C7874200DEB02018DF80430ADF8D2
:1048600005508DF8074028F011FD012003B030BD40
:1048700002D0002003B030BD41F2C500125C622AB4
:10488000E5D8F6E7C0370120F8B5214D1D260C46C6
:10489000074605F80C6C28F00FFA002028F098F96C
:1048A000082028F095F90E2028F092F9304628F0DB
:1048B0008FF9042028F08CF9042028F089F90020D1
:1048C00028F086F9302028F083F9002028F080F9BC
:1048D000204628F07DF9002028F07AF928F0CEF95A
:1048E000A5F1080028F0DAF800B9F8BD15F8073C82
:1048F0000BB1302B0AD115F8082C15F8063C1343E0
:1049000004D115F8053C01203B70F8BD0120F8BD2D
:10491000B84801202DE9F04FBB4C0022DFF8F082AF
:10492000002304F54075A4F10807A8F67809DFF81C
:10493000E4A22E462DED028BC8E9002387B09FED3F
:10494000B38A0CE0227822B107EBC303D3F8083313
:1049500063B900232B6018340835A6423ED094F981
:104960000130002BEEDA2378002BF2D02B79DB0715
:10497000F1D4A168207925F00DFD21698346207BC3
:1049800025F008FDA2780346252AE2D8DFE812F0D8
:1049900059000B014200130144014E01400059012E
:1049A00026022F02360241024A0255003701390120
:1049B000AF00BB005F006B007E0091008801940196
:1049C000A301B001CB01D801E501F201FF011802FA
:1049D0001B012801C300E1006401760197F8183437
:1049E00013B197F81A3423B907B0BDEC028BBDE8B8
:1049F000F08F97F819244021D7F81C0446F024F9C9
:104A0000002387F81A3407B0BDEC028BBDE8F08FA5
:104A100040F282639B45D4BF4FF0000B4FF0010B77
:104A20005A46237DC5F800B0DB0794D5002A92D002
:104A30002B7943F001032B718DE7BBF1000F00F0E0
:104A4000F7810122237D2A60DA07F1D483E75FFA38
:104A50008BF01946009325F05BFC009B1A1E9B46C9
:104A600018BF0122DDE75FFA8BFB0090584625F066
:104A700067FC009B0246584603EB020B594625F0A3
:104A800047FCBBF1000218BF0122CAE75FFA8BFBAB
:104A90000090584625F054FC009B02465846A2EB75
:104AA000030B594625F034FCBBF1000218BF01226C
:104AB000B7E75FFA8BFCBCF1070F00F2C0811A1E4A
:104AC000C1B24FF0010E97F8190418BF0122003946
:104AD0009B460EFA0CFC18BF012187F81AE44B42E2
:104AE000434003EA0C03434087F8193499E700FB7D
:104AF0000BF047F6FF72514644F040FF021E83461A
:104B000018BF01228DE7002840F09681BBF100021A
:104B100018BF012285E707EE90BA0028B8EEE70A31
:104B200008BF4FF4FA73CDE9003320EE080A49F0CC
:104B30006BFB009B07EE903AF8EEE77A27EE800ACF
:104B4000FDEEC07A17EE90BABBF1000218BF012249
:104B500067E707EE90BA0028F8EEE78A08BF4FF43F
:104B6000FA73CDE9003368EE888AB0EE680A49F03E
:104B700023FCF0EE407AB0EE680AF0EE678A49F066
:104B800043FB009B07EE903AB8EEE77AC8EE807AD6
:104B900067EE877AFDEEE77A17EE90BABBF1000276
:104BA00018BF01223DE7ABEB000BBBFA8BFB4FEAD2
:104BB0005B1B5A4635E78345ACBF4FF0000B4FF007
:104BC000010B5A462DE7D8F80030BBF10002C9F8B6
:104BD00000B943F0800318BF0122C8F8003020E775
:104BE00007EE90BA0028B8EEE70A08BF4FF4FA7350
:104BF000CDE9003320EE080A49F0DEFB99E758447E
:104C000077E7ABEB000074E7C048012035FA8E3C33
:104C1000780800200080FFFF40F234539B45CCBF52
:104C20004FF0000B4FF0010B5A46FAE6ABF235504D
:104C3000B0F5A77F2CBF4FF0000B4FF0010B5A4689
:104C4000EFE6031E18BF0123BBF1000F14BF9B4604
:104C50004FF0000B5A46E4E61A46584600210093EE
:104C600044F08CFE009B002219464FF47A73FEF745
:104C700005F8021E834618BF0122D2E64FF47A726D
:104C800000210090584644F079FE0022009B4FF42A
:104C90007A71FDF7F3FF021E834618BF0122C0E6BA
:104CA000D8F800300121227D0B432960D007C8F8D5
:104CB00000307FF550AEBBE60122D8F80030C9F8CD
:104CC000DCB82A6043F00203227DC8F80030D10727
:104CD0003FF5AEAE3FE6D8F800300121227D43F02B
:104CE00004032960D207C8F800303FF5A1AE32E6D0
:104CF000D9F8E4389B453FF42CAE02A9D7F8080454
:104D000044F0B8FC002867D058469DF80A200121DD
:104D100044F034FE021E8346C9F8E40818BF01229D
:104D200087F80E047DE6D8F800300121227D43F09B
:104D300008032960C8F80030D3073FF579AE0AE6CA
:104D4000D8F800300121227D43F010032960D007FC
:104D5000C8F800303FF56CAEFDE5D8F80030012111
:104D6000227D43F020032960D107C8F800303FF5C9
:104D70005FAEF0E5D8F80030BBF10002C9F8F4B836
:104D800043F0400318BF0122C8F8003049E6D9F8C3
:104D9000F8389B453FF4DDAD02A9D7F8080444F08C
:104DA00069FCC8B158460522012144F0E7FD021E06
:104DB0008346C9F8F80818BF012287F80C0430E6CA
:104DC000D9F8FC389B453FF4C4AD02A9D7F80804D4
:104DD00044F050FC00283AD12860BCE55BEA0303AC
:104DE00014BF4FF0010B4FF0000B5A4619E6BBEB16
:104DF000000B18BF4FF0010B5A4612E6B0FA80F3D1
:104E00005B09BBF1000F14BF9B464FF0010B5A46E4
:104E100007E65BEA03030CBF4FF0010B4FF0000BFA
:104E20005A46FEE5BBFA8BFB4FEA5B1B5A46F8E598
:104E300050B9D5F800B069E69BFBF0F059E6021EC8
:104E4000834618BF0122ECE5C5F800B083E558465B
:104E50000822012144F092FD021E8346C9F8FC0895
:104E600018BF012287F80D04DBE500BF164991F851
:104E7000842032B3F0B4064600200346074602E021
:104E800092F88420DAB100EB80002E2A4FEA40002D
:104E900004D10133CA18324482F88470CA18A0F1D0
:104EA000300592F88420A2F13004092C98BF5019E3
:104EB0000E2B03F1010301EB0302E1D90020F0BC4A
:104EC00070470020704700BFC037012070B5154EF5
:104ED0000546D6F8200403791E3B012B04D9002196
:104EE00044F01EFDD6F82004002D09DD0E4C2544AB
:104EF00014F8011B44F014FDD6F82004A542F7D1A4
:104F0000002144F00DFD094AB6F850340021D2F8D2
:104F1000840F0133064AC6F84804A6F8503451609D
:104F200070BD00BFB8480120DC4C0120C82601201C
:104F3000004D012010B50A4C04F6C45009F084FD60
:104F4000D4F8D03DC01A49F09FF8002842F21073FF
:104F5000B8BF40429842D4BF0020012010BD00BF1E
:104F6000C037012038B5084CB4F8C05429F06AFEA7
:104F7000854205DDB4F8C024044BA3F81E2938BDD2
:104F8000BDE8384009F008B8B8480120000000200A
:104F9000036813F0400004D013F4057F14BF012010
:104FA000002070472DE9F043244D85B0244C804605
:104FB00005F128090F46164644E93159FDF770FC02
:104FC000122042F6F82200231E4904F8F00C40207B
:104FD00044F8D01C44E93A2328F03EF8044630B3A4
:104FE000FFF7D6FF98F800C0B0F100083F7894F9B9
:104FF00004004B4614BF03220122BCF1000F0096AF
:1050000001924FF040010CBF07240624012F0E4AE5
:10501000A5F59B650CBF082600263443029427F0B3
:1050200055FFB8F1000F05D1003818BF012005B0B9
:10503000BDE8F083C5F84005F6E700BF904D0120BC
:10504000C0370120613B0308A55003080248034A0A
:10505000A0F16D016E38A5E7C0370120400D0300B7
:105060000248034AA0F16D016E389BE7C03701206A
:10507000A086010008490023013810F8012F222AD8
:1050800004D0013301F8012F0F2BF6D1034A002180
:10509000134483F8461070470D270120C8260120CD
:1050A00010B5022382B0084C0190C4F8443552F088
:1050B000E5FF02460199D4F84805D2B202B0BDE836
:1050C000104044F00BBC00BFB84801200023421E32
:1050D000043010B42A4C84F84C3512F8011FA1F1A9
:1050E000410329B3332B21D8DFE803F01A20202015
:1050F000204037202020202E202020202020202566
:105100002020202020202020202020201A202020A5
:10511000204037202020202E202020202020202545
:1051200094F84C3543F0080384F84C358242D4D1CE
:105130005DF8044B704794F84C35824243F001030C
:1051400084F84C35C9D1F3E794F84C35824243F0EA
:10515000100384F84C35C0D1EAE794F84C3582420C
:1051600043F0040384F84C35B7D1E1E794F84C35AB
:10517000824243F0020384F84C35AED1D8E700BF39
:10518000B8480120F0B5BE4C85B0D4F850652EB1BA
:105190003046FFF7FDFE002840F07E8194F85C0564
:1051A000FBF756FB94F85435054683421CD0002883
:1051B00000F08281C6B1B34B02214FF4165296F92A
:1051C000040093F82D50002301910421B5FA85F5D0
:1051D00000921A466D09029527F078FEC4F858052A
:1051E00010B1012384F8543594F85D05FBF730FBCA
:1051F00094F85E35054683421ED0002800F01C81DD
:10520000D4F86035C3B19F4D032193F90400002306
:1052100095F834504FF49642019108219D42009236
:105220001A4618BF0D46029527F050FEC4F86405D3
:1052300010B1012384F85E35FBF7D0FBD4F8685534
:105240002DB12846FFF7A4FE002840F0FE8094F818
:105250007805FBF7FDFA94F86C350646834232D0A8
:10526000002800F03281874B93F83730012B00F093
:105270003B81022B0CBF844A844AC4F8742515B3C1
:105280002A7A002A00F02D81022A00F03181012AB9
:1052900040F03C817C4A4FF49663C4F8742595F93C
:1052A0000400022100250093019110212B462A467B
:1052B000029527F00BFEC4F8700520B1012384F895
:1052C000795584F86C3594F87A05FBF7C1FA94F8AF
:1052D0007B350546834236D0002800F0A480D4F800
:1052E0007C35D3B11A7A002A00F0F880684901EBC6
:1052F0008202D2F8D02093F9040003210023009207
:1053000001914FF480711A46029327F0DFFDC4F833
:10531000800510B1012384F87B355A4A5D4BB2F801
:105320005E1092F8605092F86100A3F8361792F878
:10533000621092F8632083F83A5783F83E0783F8A7
:105340003F1783F8402794F88405FBF781FA94F817
:1053500085350546834227D058B34FF4FA70FDF7E0
:1053600009FAD4F88835FBB11A6802F41072B2F564
:10537000107F19D093F904000821032200234FF471
:10538000E135029101924FF400711A46009527F021
:105390009DFDC4F8900538B13A4901220023086206
:1053A00084F8852584F88C3594F894556DB105B052
:1053B000F0BDD4F8900527F06DFDC4F8905584F841
:1053C000855594F89455002DF1D1D4F898150029FD
:1053D000EDD0032291F904002D4E2B46CDE9012595
:1053E0000F7A2A464FF4002106EB8706D6F8D060E4
:1053F000009627F06BFDC4F848050028D7D0214857
:1054000042F21073C4F8A055D0F8842F3A3084F8D3
:10541000A4551344C4F89C35FFF758FE012384F8C3
:10542000943505B0F0BDD4F8800527F033FDC4F8FD
:10543000805584F87B5586E7D4F8640527F02AFD6B
:10544000C4F8645584F85E55F6E694F86C35002B84
:105450007FF439AFD4F84035002B3FF434AF094A1C
:10546000C4F8703592F83730012B48D0022B0CBFAE
:10547000054B064BC4F87435012384F86C3522E7DC
:10548000B8480120C82601201C0701202807012058
:10549000D8EE06080000012094F85435002B7FF464
:1054A000A3AED4F84035002B3FF49EAE0122C4F8E1
:1054B000583584F8542597E6D4F8580527F0EAFCC7
:1054C000C4F8585584F854558EE6D4F8700527F082
:1054D000E1FCC4F8706584F86C65F4E64FF4614251
:1054E00009E74FF49643DAE60B4AC4F87425C6E69A
:1054F0004BB9094A4FF41663C4F87425CFE6064B3E
:10550000C4F87435B8E74FF41663C8E6034B03EBF1
:105510008202D2F8D030C2E610070120D8EE060889
:1055200070B5254C064604F1460052F0A7FD94F8EC
:1055300046502B2D38D0302D27D0382D3AD01F494A
:10554000002201E011F8015F0C464DB30132102A30
:10555000F8D1334606F110051A4613F8011B22292B
:1055600026D0AB42F8D1002820DDC0F10100511C4B
:10557000631C024401E0914218D011F8014D13F868
:10558000010D8442F7D0002070BD94F847200346F7
:10559000A2F13101012901D9362A0BD1981ECEE79B
:1055A000002AF0D04C1ED4E70538C8E7012070BDB2
:1055B000013AD8E70138C2E7C82601200E270120AA
:1055C0002DE9F04F2DED028B87B08846164600AFCF
:1055D00020B10378303B012B40F2B281DFF8149305
:1055E000DFEDBC8A9FEDBC8A98F80030002B3DD0DF
:1055F00036B1BA4B3268D3F8843F9A4240F2E08326
:10560000B74C94F8A555002D40F0E08294F8A80519
:10561000B44B03EB4003B3F814316BBB012384F8A4
:10562000A835B14BDA6811061ED59A68920740F189
:10563000A383AA4A4FF4F3601021B2F87831397489
:10564000302113FB00F312687974082189FB0340B1
:10565000DB170024B974C3EB601307F11000C7F81F
:105660001330904788F80040002EBDD11C37BD464E
:10567000BDEC028BBDE8F08F0130B3F58A6FC0B28C
:1056800084F8A80500F0A18128D8B3F5806F00F058
:105690003F8279D9B3F5866F00F0208250D9B3F5F7
:1056A000886FE1D1DFF834A29AF83130002BDBD0DB
:1056B0008D4A10244021DAF80030B2F9280504227E
:1056C0003C740024C7F8130007F110007974BA7411
:1056D000984788F80040002E86D1C7E7B3F5006FE1
:1056E00000F04F8140F2A080B3F5046F00F03081EC
:1056F00079D9B3F5116F00F03B82B3F5206FB3D1C8
:10570000794BD3F824359A06AED578491023002476
:105710000A22D1ED057AF8183B7467EEA87A6F4B30
:105720007C74BA74FCEEE77A17EE902A1B68C7F80F
:105730001320984788F80040002E7FF455AF95E776
:10574000B3F5826F00F0F781B3F5846F8CD1664BAF
:10575000DA68120688D59A68950740F1E882D4F88D
:10576000CC05102120230422C7F813000024781848
:1057700039747B74594BBA741B68984788F8004099
:10578000002E7FF431AF71E7B3F5007F00F0828126
